{
	"contracts/2_AddressContract.sol": {
		"MyFirstContract": {
			"abi": [
				{
					"inputs": [],
					"name": "Addr",
					"outputs": [
						{
							"internalType": "address",
							"name": "",
							"type": "address"
						}
					],
					"stateMutability": "view",
					"type": "function"
				},
				{
					"inputs": [
						{
							"internalType": "uint256",
							"name": "",
							"type": "uint256"
						}
					],
					"name": "arrayNumbers",
					"outputs": [
						{
							"internalType": "uint256",
							"name": "",
							"type": "uint256"
						}
					],
					"stateMutability": "view",
					"type": "function"
				},
				{
					"inputs": [],
					"name": "blockNumber",
					"outputs": [
						{
							"internalType": "uint256",
							"name": "",
							"type": "uint256"
						}
					],
					"stateMutability": "view",
					"type": "function"
				},
				{
					"inputs": [],
					"name": "endTime",
					"outputs": [
						{
							"internalType": "uint256",
							"name": "",
							"type": "uint256"
						}
					],
					"stateMutability": "view",
					"type": "function"
				},
				{
					"inputs": [],
					"name": "gasprice",
					"outputs": [
						{
							"internalType": "uint256",
							"name": "",
							"type": "uint256"
						}
					],
					"stateMutability": "view",
					"type": "function"
				},
				{
					"inputs": [],
					"name": "hey",
					"outputs": [
						{
							"internalType": "string",
							"name": "",
							"type": "string"
						}
					],
					"stateMutability": "view",
					"type": "function"
				},
				{
					"inputs": [],
					"name": "maxNumber",
					"outputs": [
						{
							"internalType": "int256",
							"name": "",
							"type": "int256"
						}
					],
					"stateMutability": "view",
					"type": "function"
				},
				{
					"inputs": [],
					"name": "minNumber",
					"outputs": [
						{
							"internalType": "int256",
							"name": "",
							"type": "int256"
						}
					],
					"stateMutability": "view",
					"type": "function"
				},
				{
					"inputs": [],
					"name": "no",
					"outputs": [
						{
							"internalType": "int8",
							"name": "",
							"type": "int8"
						}
					],
					"stateMutability": "view",
					"type": "function"
				},
				{
					"inputs": [],
					"name": "printInputs",
					"outputs": [
						{
							"internalType": "address",
							"name": "",
							"type": "address"
						},
						{
							"internalType": "address",
							"name": "",
							"type": "address"
						},
						{
							"internalType": "uint256",
							"name": "",
							"type": "uint256"
						},
						{
							"internalType": "uint256",
							"name": "",
							"type": "uint256"
						}
					],
					"stateMutability": "nonpayable",
					"type": "function"
				},
				{
					"inputs": [],
					"name": "startTime",
					"outputs": [
						{
							"internalType": "uint256",
							"name": "",
							"type": "uint256"
						}
					],
					"stateMutability": "view",
					"type": "function"
				}
			],
			"devdoc": {
				"kind": "dev",
				"methods": {},
				"version": 1
			},
			"evm": {
				"assembly": "    /* \"contracts/2_AddressContract.sol\":69:1191  contract MyFirstContract {... */\n  mstore(0x40, 0x80)\n    /* \"contracts/2_AddressContract.sol\":222:264  0x5B38Da6a701c568545dCfcB03FcB875f56beddC4 */\n  0x5b38da6a701c568545dcfcb03fcb875f56beddc4\n    /* \"contracts/2_AddressContract.sol\":200:264  address public Addr = 0x5B38Da6a701c568545dCfcB03FcB875f56beddC4 */\n  0x04\n  exp(0x0100, 0x00)\n  dup2\n  sload\n  dup2\n  0xffffffffffffffffffffffffffffffffffffffff\n  mul\n  not\n  and\n  swap1\n  dup4\n  0xffffffffffffffffffffffffffffffffffffffff\n  and\n  mul\n  or\n  swap1\n  sstore\n  pop\n    /* \"contracts/2_AddressContract.sol\":69:1191  contract MyFirstContract {... */\n  callvalue\n  dup1\n  iszero\n  tag_1\n  jumpi\n  0x00\n  dup1\n  revert\ntag_1:\n  pop\n  dataSize(sub_0)\n  dup1\n  dataOffset(sub_0)\n  0x00\n  codecopy\n  0x00\n  return\nstop\n\nsub_0: assembly {\n        /* \"contracts/2_AddressContract.sol\":69:1191  contract MyFirstContract {... */\n      mstore(0x40, 0x80)\n      callvalue\n      dup1\n      iszero\n      tag_1\n      jumpi\n      0x00\n      dup1\n      revert\n    tag_1:\n      pop\n      jumpi(tag_2, lt(calldatasize, 0x04))\n      shr(0xe0, calldataload(0x00))\n      dup1\n      0x78e97925\n      gt\n      tag_14\n      jumpi\n      dup1\n      0x78e97925\n      eq\n      tag_8\n      jumpi\n      dup1\n      0x97c0c80e\n      eq\n      tag_9\n      jumpi\n      dup1\n      0xb6c52ae8\n      eq\n      tag_10\n      jumpi\n      dup1\n      0xbde2b573\n      eq\n      tag_11\n      jumpi\n      dup1\n      0xeb3d5cdb\n      eq\n      tag_12\n      jumpi\n      dup1\n      0xfed4dbcb\n      eq\n      tag_13\n      jumpi\n      jump(tag_2)\n    tag_14:\n      dup1\n      0x3197cbb6\n      eq\n      tag_3\n      jumpi\n      dup1\n      0x3a4f6999\n      eq\n      tag_4\n      jumpi\n      dup1\n      0x55b93031\n      eq\n      tag_5\n      jumpi\n      dup1\n      0x57e871e7\n      eq\n      tag_6\n      jumpi\n      dup1\n      0x6ec232d3\n      eq\n      tag_7\n      jumpi\n    tag_2:\n      0x00\n      dup1\n      revert\n        /* \"contracts/2_AddressContract.sol\":461:480  uint public endTime */\n    tag_3:\n      tag_15\n      tag_16\n      jump\t// in\n    tag_15:\n      mload(0x40)\n      tag_17\n      swap2\n      swap1\n      tag_18\n      jump\t// in\n    tag_17:\n      mload(0x40)\n      dup1\n      swap2\n      sub\n      swap1\n      return\n        /* \"contracts/2_AddressContract.sol\":173:193  int public maxNumber */\n    tag_4:\n      tag_19\n      tag_20\n      jump\t// in\n    tag_19:\n      mload(0x40)\n      tag_21\n      swap2\n      swap1\n      tag_22\n      jump\t// in\n    tag_21:\n      mload(0x40)\n      dup1\n      swap2\n      sub\n      swap1\n      return\n        /* \"contracts/2_AddressContract.sol\":146:166  int public minNumber */\n    tag_5:\n      tag_23\n      tag_24\n      jump\t// in\n    tag_23:\n      mload(0x40)\n      tag_25\n      swap2\n      swap1\n      tag_22\n      jump\t// in\n    tag_25:\n      mload(0x40)\n      dup1\n      swap2\n      sub\n      swap1\n      return\n        /* \"contracts/2_AddressContract.sol\":304:327  uint public blockNumber */\n    tag_6:\n      tag_26\n      tag_27\n      jump\t// in\n    tag_26:\n      mload(0x40)\n      tag_28\n      swap2\n      swap1\n      tag_18\n      jump\t// in\n    tag_28:\n      mload(0x40)\n      dup1\n      swap2\n      sub\n      swap1\n      return\n        /* \"contracts/2_AddressContract.sol\":334:354  uint public gasprice */\n    tag_7:\n      tag_29\n      tag_30\n      jump\t// in\n    tag_29:\n      mload(0x40)\n      tag_31\n      swap2\n      swap1\n      tag_18\n      jump\t// in\n    tag_31:\n      mload(0x40)\n      dup1\n      swap2\n      sub\n      swap1\n      return\n        /* \"contracts/2_AddressContract.sol\":433:454  uint public startTime */\n    tag_8:\n      tag_32\n      tag_33\n      jump\t// in\n    tag_32:\n      mload(0x40)\n      tag_34\n      swap2\n      swap1\n      tag_18\n      jump\t// in\n    tag_34:\n      mload(0x40)\n      dup1\n      swap2\n      sub\n      swap1\n      return\n        /* \"contracts/2_AddressContract.sol\":271:297  uint[] public arrayNumbers */\n    tag_9:\n      tag_35\n      0x04\n      dup1\n      calldatasize\n      sub\n      dup2\n      add\n      swap1\n      tag_36\n      swap2\n      swap1\n      tag_37\n      jump\t// in\n    tag_36:\n      tag_38\n      jump\t// in\n    tag_35:\n      mload(0x40)\n      tag_39\n      swap2\n      swap1\n      tag_18\n      jump\t// in\n    tag_39:\n      mload(0x40)\n      dup1\n      swap2\n      sub\n      swap1\n      return\n        /* \"contracts/2_AddressContract.sol\":125:139  int8 public no */\n    tag_10:\n      tag_40\n      tag_41\n      jump\t// in\n    tag_40:\n      mload(0x40)\n      tag_42\n      swap2\n      swap1\n      tag_43\n      jump\t// in\n    tag_42:\n      mload(0x40)\n      dup1\n      swap2\n      sub\n      swap1\n      return\n        /* \"contracts/2_AddressContract.sol\":101:118  string public hey */\n    tag_11:\n      tag_44\n      tag_45\n      jump\t// in\n    tag_44:\n      mload(0x40)\n      tag_46\n      swap2\n      swap1\n      tag_47\n      jump\t// in\n    tag_46:\n      mload(0x40)\n      dup1\n      swap2\n      sub\n      swap1\n      return\n        /* \"contracts/2_AddressContract.sol\":200:264  address public Addr = 0x5B38Da6a701c568545dCfcB03FcB875f56beddC4 */\n    tag_12:\n      tag_48\n      tag_49\n      jump\t// in\n    tag_48:\n      mload(0x40)\n      tag_50\n      swap2\n      swap1\n      tag_51\n      jump\t// in\n    tag_50:\n      mload(0x40)\n      dup1\n      swap2\n      sub\n      swap1\n      return\n        /* \"contracts/2_AddressContract.sol\":627:1188  function  printInputs  () onlyOwner public returns(address, address,uint, uint){... */\n    tag_13:\n      tag_52\n      tag_53\n      jump\t// in\n    tag_52:\n      mload(0x40)\n      tag_54\n      swap5\n      swap4\n      swap3\n      swap2\n      swap1\n      tag_55\n      jump\t// in\n    tag_54:\n      mload(0x40)\n      dup1\n      swap2\n      sub\n      swap1\n      return\n        /* \"contracts/2_AddressContract.sol\":461:480  uint public endTime */\n    tag_16:\n      sload(0x0b)\n      dup2\n      jump\t// out\n        /* \"contracts/2_AddressContract.sol\":173:193  int public maxNumber */\n    tag_20:\n      sload(0x03)\n      dup2\n      jump\t// out\n        /* \"contracts/2_AddressContract.sol\":146:166  int public minNumber */\n    tag_24:\n      sload(0x02)\n      dup2\n      jump\t// out\n        /* \"contracts/2_AddressContract.sol\":304:327  uint public blockNumber */\n    tag_27:\n      sload(0x06)\n      dup2\n      jump\t// out\n        /* \"contracts/2_AddressContract.sol\":334:354  uint public gasprice */\n    tag_30:\n      sload(0x07)\n      dup2\n      jump\t// out\n        /* \"contracts/2_AddressContract.sol\":433:454  uint public startTime */\n    tag_33:\n      sload(0x0a)\n      dup2\n      jump\t// out\n        /* \"contracts/2_AddressContract.sol\":271:297  uint[] public arrayNumbers */\n    tag_38:\n      0x05\n      dup2\n      dup2\n      sload\n      dup2\n      lt\n      tag_56\n      jumpi\n      0x00\n      dup1\n      revert\n    tag_56:\n      swap1\n      0x00\n      mstore\n      keccak256(0x00, 0x20)\n      add\n      0x00\n      swap2\n      pop\n      swap1\n      pop\n      sload\n      dup2\n      jump\t// out\n        /* \"contracts/2_AddressContract.sol\":125:139  int8 public no */\n    tag_41:\n      0x01\n      0x00\n      swap1\n      sload\n      swap1\n      0x0100\n      exp\n      swap1\n      div\n      0x00\n      signextend\n      dup2\n      jump\t// out\n        /* \"contracts/2_AddressContract.sol\":101:118  string public hey */\n    tag_45:\n      0x00\n      dup1\n      sload\n      tag_58\n      swap1\n      tag_59\n      jump\t// in\n    tag_58:\n      dup1\n      0x1f\n      add\n      0x20\n      dup1\n      swap2\n      div\n      mul\n      0x20\n      add\n      mload(0x40)\n      swap1\n      dup2\n      add\n      0x40\n      mstore\n      dup1\n      swap3\n      swap2\n      swap1\n      dup2\n      dup2\n      mstore\n      0x20\n      add\n      dup3\n      dup1\n      sload\n      tag_60\n      swap1\n      tag_59\n      jump\t// in\n    tag_60:\n      dup1\n      iszero\n      tag_61\n      jumpi\n      dup1\n      0x1f\n      lt\n      tag_62\n      jumpi\n      0x0100\n      dup1\n      dup4\n      sload\n      div\n      mul\n      dup4\n      mstore\n      swap2\n      0x20\n      add\n      swap2\n      jump(tag_61)\n    tag_62:\n      dup3\n      add\n      swap2\n      swap1\n      0x00\n      mstore\n      keccak256(0x00, 0x20)\n      swap1\n    tag_63:\n      dup2\n      sload\n      dup2\n      mstore\n      swap1\n      0x01\n      add\n      swap1\n      0x20\n      add\n      dup1\n      dup4\n      gt\n      tag_63\n      jumpi\n      dup3\n      swap1\n      sub\n      0x1f\n      and\n      dup3\n      add\n      swap2\n    tag_61:\n      pop\n      pop\n      pop\n      pop\n      pop\n      dup2\n      jump\t// out\n        /* \"contracts/2_AddressContract.sol\":200:264  address public Addr = 0x5B38Da6a701c568545dCfcB03FcB875f56beddC4 */\n    tag_49:\n      0x04\n      0x00\n      swap1\n      sload\n      swap1\n      0x0100\n      exp\n      swap1\n      div\n      0xffffffffffffffffffffffffffffffffffffffff\n      and\n      dup2\n      jump\t// out\n        /* \"contracts/2_AddressContract.sol\":627:1188  function  printInputs  () onlyOwner public returns(address, address,uint, uint){... */\n    tag_53:\n        /* \"contracts/2_AddressContract.sol\":678:685  address */\n      0x00\n        /* \"contracts/2_AddressContract.sol\":687:694  address */\n      dup1\n        /* \"contracts/2_AddressContract.sol\":695:699  uint */\n      0x00\n        /* \"contracts/2_AddressContract.sol\":701:705  uint */\n      dup1\n        /* \"contracts/2_AddressContract.sol\":540:582  0xAb8483F64d9C6d1EcF9b849Ae677dD3315835cb2 */\n      0xab8483f64d9c6d1ecf9b849ae677dd3315835cb2\n        /* \"contracts/2_AddressContract.sol\":526:582  msg.sender != 0xAb8483F64d9C6d1EcF9b849Ae677dD3315835cb2 */\n      0xffffffffffffffffffffffffffffffffffffffff\n      and\n        /* \"contracts/2_AddressContract.sol\":526:536  msg.sender */\n      caller\n        /* \"contracts/2_AddressContract.sol\":526:582  msg.sender != 0xAb8483F64d9C6d1EcF9b849Ae677dD3315835cb2 */\n      0xffffffffffffffffffffffffffffffffffffffff\n      and\n      sub\n        /* \"contracts/2_AddressContract.sol\":518:606  require(msg.sender != 0xAb8483F64d9C6d1EcF9b849Ae677dD3315835cb2, \"Caller is not owner\") */\n      tag_65\n      jumpi\n      mload(0x40)\n      0x08c379a000000000000000000000000000000000000000000000000000000000\n      dup2\n      mstore\n      0x04\n      add\n      tag_66\n      swap1\n      tag_67\n      jump\t// in\n    tag_66:\n      mload(0x40)\n      dup1\n      swap2\n      sub\n      swap1\n      revert\n    tag_65:\n        /* \"contracts/2_AddressContract.sol\":731:744  type(int).min */\n      0x8000000000000000000000000000000000000000000000000000000000000000\n        /* \"contracts/2_AddressContract.sol\":719:728  minNumber */\n      0x02\n        /* \"contracts/2_AddressContract.sol\":719:744  minNumber = type(int).min */\n      dup2\n      swap1\n      sstore\n      pop\n        /* \"contracts/2_AddressContract.sol\":767:780  type(int).max */\n      0x7fffffffffffffffffffffffffffffffffffffffffffffffffffffffffffffff\n        /* \"contracts/2_AddressContract.sol\":755:764  maxNumber */\n      0x03\n        /* \"contracts/2_AddressContract.sol\":755:780  maxNumber = type(int).max */\n      dup2\n      swap1\n      sstore\n      pop\n        /* \"contracts/2_AddressContract.sol\":811:818  msg.sig */\n      and(0xffffffff00000000000000000000000000000000000000000000000000000000, calldataload(0x00))\n        /* \"contracts/2_AddressContract.sol\":799:808  signature */\n      0x08\n      0x14\n        /* \"contracts/2_AddressContract.sol\":799:818  signature = msg.sig */\n      0x0100\n      exp\n      dup2\n      sload\n      dup2\n      0xffffffff\n      mul\n      not\n      and\n      swap1\n      dup4\n      0xe0\n      shr\n      mul\n      or\n      swap1\n      sstore\n      pop\n        /* \"contracts/2_AddressContract.sol\":845:855  msg.sender */\n      caller\n        /* \"contracts/2_AddressContract.sol\":829:842  contractOwner */\n      0x09\n      0x00\n        /* \"contracts/2_AddressContract.sol\":829:855  contractOwner = msg.sender */\n      0x0100\n      exp\n      dup2\n      sload\n      dup2\n      0xffffffffffffffffffffffffffffffffffffffff\n      mul\n      not\n      and\n      swap1\n      dup4\n      0xffffffffffffffffffffffffffffffffffffffff\n      and\n      mul\n      or\n      swap1\n      sstore\n      pop\n        /* \"contracts/2_AddressContract.sol\":882:894  block.number */\n      number\n        /* \"contracts/2_AddressContract.sol\":868:879  blockNumber */\n      0x06\n        /* \"contracts/2_AddressContract.sol\":868:894  blockNumber = block.number */\n      dup2\n      swap1\n      sstore\n      pop\n        /* \"contracts/2_AddressContract.sol\":918:929  tx.gasprice */\n      gasprice\n        /* \"contracts/2_AddressContract.sol\":907:915  gasprice */\n      0x07\n        /* \"contracts/2_AddressContract.sol\":907:929  gasprice = tx.gasprice */\n      dup2\n      swap1\n      sstore\n      pop\n        /* \"contracts/2_AddressContract.sol\":949:958  tx.origin */\n      origin\n        /* \"contracts/2_AddressContract.sol\":940:946  origin */\n      0x08\n      0x00\n        /* \"contracts/2_AddressContract.sol\":940:958  origin = tx.origin */\n      0x0100\n      exp\n      dup2\n      sload\n      dup2\n      0xffffffffffffffffffffffffffffffffffffffff\n      mul\n      not\n      and\n      swap1\n      dup4\n      0xffffffffffffffffffffffffffffffffffffffff\n      and\n      mul\n      or\n      swap1\n      sstore\n      pop\n        /* \"contracts/2_AddressContract.sol\":981:996  block.timestamp */\n      timestamp\n        /* \"contracts/2_AddressContract.sol\":969:978  startTime */\n      0x0a\n        /* \"contracts/2_AddressContract.sol\":969:996  startTime = block.timestamp */\n      dup2\n      swap1\n      sstore\n      pop\n        /* \"contracts/2_AddressContract.sol\":1035:1041  7 days */\n      0x093a80\n        /* \"contracts/2_AddressContract.sol\":1017:1032  block.timestamp */\n      timestamp\n        /* \"contracts/2_AddressContract.sol\":1017:1041  block.timestamp + 7 days */\n      tag_69\n      swap2\n      swap1\n      tag_70\n      jump\t// in\n    tag_69:\n        /* \"contracts/2_AddressContract.sol\":1007:1014  endTime */\n      0x0b\n        /* \"contracts/2_AddressContract.sol\":1007:1041  endTime = block.timestamp + 7 days */\n      dup2\n      swap1\n      sstore\n      pop\n        /* \"contracts/2_AddressContract.sol\":1056:1067  uint pinter */\n      0x00\n        /* \"contracts/2_AddressContract.sol\":1070:1074  Addr */\n      0x04\n      0x00\n      swap1\n      sload\n      swap1\n      0x0100\n      exp\n      swap1\n      div\n      0xffffffffffffffffffffffffffffffffffffffff\n      and\n        /* \"contracts/2_AddressContract.sol\":1070:1082  Addr.balance */\n      0xffffffffffffffffffffffffffffffffffffffff\n      and\n      balance\n        /* \"contracts/2_AddressContract.sol\":1056:1082  uint pinter = Addr.balance */\n      swap1\n      pop\n        /* \"contracts/2_AddressContract.sol\":1093:1105  arrayNumbers */\n      0x05\n        /* \"contracts/2_AddressContract.sol\":1111:1117  pinter */\n      dup2\n        /* \"contracts/2_AddressContract.sol\":1093:1118  arrayNumbers.push(pinter) */\n      swap1\n      dup1\n      0x01\n      dup2\n      sload\n      add\n      dup1\n      dup3\n      sstore\n      dup1\n      swap2\n      pop\n      pop\n      0x01\n      swap1\n      sub\n      swap1\n      0x00\n      mstore\n      keccak256(0x00, 0x20)\n      add\n      0x00\n      swap1\n      swap2\n      swap1\n      swap2\n      swap1\n      swap2\n      pop\n      sstore\n        /* \"contracts/2_AddressContract.sol\":1137:1147  msg.sender */\n      caller\n        /* \"contracts/2_AddressContract.sol\":1149:1158  tx.origin */\n      origin\n        /* \"contracts/2_AddressContract.sol\":1160:1169  startTime */\n      sload(0x0a)\n        /* \"contracts/2_AddressContract.sol\":1171:1178  endTime */\n      sload(0x0b)\n        /* \"contracts/2_AddressContract.sol\":1129:1179  return (msg.sender, tx.origin, startTime, endTime) */\n      swap5\n      pop\n      swap5\n      pop\n      swap5\n      pop\n      swap5\n      pop\n      pop\n        /* \"contracts/2_AddressContract.sol\":627:1188  function  printInputs  () onlyOwner public returns(address, address,uint, uint){... */\n      swap1\n      swap2\n      swap3\n      swap4\n      jump\t// out\n        /* \"#utility.yul\":7:84   */\n    tag_72:\n        /* \"#utility.yul\":44:51   */\n      0x00\n        /* \"#utility.yul\":73:78   */\n      dup2\n        /* \"#utility.yul\":62:78   */\n      swap1\n      pop\n        /* \"#utility.yul\":7:84   */\n      swap2\n      swap1\n      pop\n      jump\t// out\n        /* \"#utility.yul\":90:208   */\n    tag_73:\n        /* \"#utility.yul\":177:201   */\n      tag_98\n        /* \"#utility.yul\":195:200   */\n      dup2\n        /* \"#utility.yul\":177:201   */\n      tag_72\n      jump\t// in\n    tag_98:\n        /* \"#utility.yul\":172:175   */\n      dup3\n        /* \"#utility.yul\":165:202   */\n      mstore\n        /* \"#utility.yul\":90:208   */\n      pop\n      pop\n      jump\t// out\n        /* \"#utility.yul\":214:436   */\n    tag_18:\n        /* \"#utility.yul\":307:311   */\n      0x00\n        /* \"#utility.yul\":345:347   */\n      0x20\n        /* \"#utility.yul\":334:343   */\n      dup3\n        /* \"#utility.yul\":330:348   */\n      add\n        /* \"#utility.yul\":322:348   */\n      swap1\n      pop\n        /* \"#utility.yul\":358:429   */\n      tag_100\n        /* \"#utility.yul\":426:427   */\n      0x00\n        /* \"#utility.yul\":415:424   */\n      dup4\n        /* \"#utility.yul\":411:428   */\n      add\n        /* \"#utility.yul\":402:408   */\n      dup5\n        /* \"#utility.yul\":358:429   */\n      tag_73\n      jump\t// in\n    tag_100:\n        /* \"#utility.yul\":214:436   */\n      swap3\n      swap2\n      pop\n      pop\n      jump\t// out\n        /* \"#utility.yul\":442:518   */\n    tag_74:\n        /* \"#utility.yul\":478:485   */\n      0x00\n        /* \"#utility.yul\":507:512   */\n      dup2\n        /* \"#utility.yul\":496:512   */\n      swap1\n      pop\n        /* \"#utility.yul\":442:518   */\n      swap2\n      swap1\n      pop\n      jump\t// out\n        /* \"#utility.yul\":524:639   */\n    tag_75:\n        /* \"#utility.yul\":609:632   */\n      tag_103\n        /* \"#utility.yul\":626:631   */\n      dup2\n        /* \"#utility.yul\":609:632   */\n      tag_74\n      jump\t// in\n    tag_103:\n        /* \"#utility.yul\":604:607   */\n      dup3\n        /* \"#utility.yul\":597:633   */\n      mstore\n        /* \"#utility.yul\":524:639   */\n      pop\n      pop\n      jump\t// out\n        /* \"#utility.yul\":645:863   */\n    tag_22:\n        /* \"#utility.yul\":736:740   */\n      0x00\n        /* \"#utility.yul\":774:776   */\n      0x20\n        /* \"#utility.yul\":763:772   */\n      dup3\n        /* \"#utility.yul\":759:777   */\n      add\n        /* \"#utility.yul\":751:777   */\n      swap1\n      pop\n        /* \"#utility.yul\":787:856   */\n      tag_105\n        /* \"#utility.yul\":853:854   */\n      0x00\n        /* \"#utility.yul\":842:851   */\n      dup4\n        /* \"#utility.yul\":838:855   */\n      add\n        /* \"#utility.yul\":829:835   */\n      dup5\n        /* \"#utility.yul\":787:856   */\n      tag_75\n      jump\t// in\n    tag_105:\n        /* \"#utility.yul\":645:863   */\n      swap3\n      swap2\n      pop\n      pop\n      jump\t// out\n        /* \"#utility.yul\":950:1067   */\n    tag_77:\n        /* \"#utility.yul\":1059:1060   */\n      0x00\n        /* \"#utility.yul\":1056:1057   */\n      dup1\n        /* \"#utility.yul\":1049:1061   */\n      revert\n        /* \"#utility.yul\":1196:1318   */\n    tag_79:\n        /* \"#utility.yul\":1269:1293   */\n      tag_110\n        /* \"#utility.yul\":1287:1292   */\n      dup2\n        /* \"#utility.yul\":1269:1293   */\n      tag_72\n      jump\t// in\n    tag_110:\n        /* \"#utility.yul\":1262:1267   */\n      dup2\n        /* \"#utility.yul\":1259:1294   */\n      eq\n        /* \"#utility.yul\":1249:1312   */\n      tag_111\n      jumpi\n        /* \"#utility.yul\":1308:1309   */\n      0x00\n        /* \"#utility.yul\":1305:1306   */\n      dup1\n        /* \"#utility.yul\":1298:1310   */\n      revert\n        /* \"#utility.yul\":1249:1312   */\n    tag_111:\n        /* \"#utility.yul\":1196:1318   */\n      pop\n      jump\t// out\n        /* \"#utility.yul\":1324:1463   */\n    tag_80:\n        /* \"#utility.yul\":1370:1375   */\n      0x00\n        /* \"#utility.yul\":1408:1414   */\n      dup2\n        /* \"#utility.yul\":1395:1415   */\n      calldataload\n        /* \"#utility.yul\":1386:1415   */\n      swap1\n      pop\n        /* \"#utility.yul\":1424:1457   */\n      tag_113\n        /* \"#utility.yul\":1451:1456   */\n      dup2\n        /* \"#utility.yul\":1424:1457   */\n      tag_79\n      jump\t// in\n    tag_113:\n        /* \"#utility.yul\":1324:1463   */\n      swap3\n      swap2\n      pop\n      pop\n      jump\t// out\n        /* \"#utility.yul\":1469:1798   */\n    tag_37:\n        /* \"#utility.yul\":1528:1534   */\n      0x00\n        /* \"#utility.yul\":1577:1579   */\n      0x20\n        /* \"#utility.yul\":1565:1574   */\n      dup3\n        /* \"#utility.yul\":1556:1563   */\n      dup5\n        /* \"#utility.yul\":1552:1575   */\n      sub\n        /* \"#utility.yul\":1548:1580   */\n      slt\n        /* \"#utility.yul\":1545:1664   */\n      iszero\n      tag_115\n      jumpi\n        /* \"#utility.yul\":1583:1662   */\n      tag_116\n      tag_77\n      jump\t// in\n    tag_116:\n        /* \"#utility.yul\":1545:1664   */\n    tag_115:\n        /* \"#utility.yul\":1703:1704   */\n      0x00\n        /* \"#utility.yul\":1728:1781   */\n      tag_117\n        /* \"#utility.yul\":1773:1780   */\n      dup5\n        /* \"#utility.yul\":1764:1770   */\n      dup3\n        /* \"#utility.yul\":1753:1762   */\n      dup6\n        /* \"#utility.yul\":1749:1771   */\n      add\n        /* \"#utility.yul\":1728:1781   */\n      tag_80\n      jump\t// in\n    tag_117:\n        /* \"#utility.yul\":1718:1781   */\n      swap2\n      pop\n        /* \"#utility.yul\":1674:1791   */\n      pop\n        /* \"#utility.yul\":1469:1798   */\n      swap3\n      swap2\n      pop\n      pop\n      jump\t// out\n        /* \"#utility.yul\":1804:1893   */\n    tag_81:\n        /* \"#utility.yul\":1838:1845   */\n      0x00\n        /* \"#utility.yul\":1881:1886   */\n      dup2\n        /* \"#utility.yul\":1878:1879   */\n      0x00\n        /* \"#utility.yul\":1867:1887   */\n      signextend\n        /* \"#utility.yul\":1856:1887   */\n      swap1\n      pop\n        /* \"#utility.yul\":1804:1893   */\n      swap2\n      swap1\n      pop\n      jump\t// out\n        /* \"#utility.yul\":1899:2008   */\n    tag_82:\n        /* \"#utility.yul\":1980:2001   */\n      tag_120\n        /* \"#utility.yul\":1995:2000   */\n      dup2\n        /* \"#utility.yul\":1980:2001   */\n      tag_81\n      jump\t// in\n    tag_120:\n        /* \"#utility.yul\":1975:1978   */\n      dup3\n        /* \"#utility.yul\":1968:2002   */\n      mstore\n        /* \"#utility.yul\":1899:2008   */\n      pop\n      pop\n      jump\t// out\n        /* \"#utility.yul\":2014:2224   */\n    tag_43:\n        /* \"#utility.yul\":2101:2105   */\n      0x00\n        /* \"#utility.yul\":2139:2141   */\n      0x20\n        /* \"#utility.yul\":2128:2137   */\n      dup3\n        /* \"#utility.yul\":2124:2142   */\n      add\n        /* \"#utility.yul\":2116:2142   */\n      swap1\n      pop\n        /* \"#utility.yul\":2152:2217   */\n      tag_122\n        /* \"#utility.yul\":2214:2215   */\n      0x00\n        /* \"#utility.yul\":2203:2212   */\n      dup4\n        /* \"#utility.yul\":2199:2216   */\n      add\n        /* \"#utility.yul\":2190:2196   */\n      dup5\n        /* \"#utility.yul\":2152:2217   */\n      tag_82\n      jump\t// in\n    tag_122:\n        /* \"#utility.yul\":2014:2224   */\n      swap3\n      swap2\n      pop\n      pop\n      jump\t// out\n        /* \"#utility.yul\":2230:2329   */\n    tag_83:\n        /* \"#utility.yul\":2282:2288   */\n      0x00\n        /* \"#utility.yul\":2316:2321   */\n      dup2\n        /* \"#utility.yul\":2310:2322   */\n      mload\n        /* \"#utility.yul\":2300:2322   */\n      swap1\n      pop\n        /* \"#utility.yul\":2230:2329   */\n      swap2\n      swap1\n      pop\n      jump\t// out\n        /* \"#utility.yul\":2335:2504   */\n    tag_84:\n        /* \"#utility.yul\":2419:2430   */\n      0x00\n        /* \"#utility.yul\":2453:2459   */\n      dup3\n        /* \"#utility.yul\":2448:2451   */\n      dup3\n        /* \"#utility.yul\":2441:2460   */\n      mstore\n        /* \"#utility.yul\":2493:2497   */\n      0x20\n        /* \"#utility.yul\":2488:2491   */\n      dup3\n        /* \"#utility.yul\":2484:2498   */\n      add\n        /* \"#utility.yul\":2469:2498   */\n      swap1\n      pop\n        /* \"#utility.yul\":2335:2504   */\n      swap3\n      swap2\n      pop\n      pop\n      jump\t// out\n        /* \"#utility.yul\":2510:2649   */\n    tag_85:\n        /* \"#utility.yul\":2599:2605   */\n      dup3\n        /* \"#utility.yul\":2594:2597   */\n      dup2\n        /* \"#utility.yul\":2589:2592   */\n      dup4\n        /* \"#utility.yul\":2583:2606   */\n      mcopy\n        /* \"#utility.yul\":2640:2641   */\n      0x00\n        /* \"#utility.yul\":2631:2637   */\n      dup4\n        /* \"#utility.yul\":2626:2629   */\n      dup4\n        /* \"#utility.yul\":2622:2638   */\n      add\n        /* \"#utility.yul\":2615:2642   */\n      mstore\n        /* \"#utility.yul\":2510:2649   */\n      pop\n      pop\n      pop\n      jump\t// out\n        /* \"#utility.yul\":2655:2757   */\n    tag_86:\n        /* \"#utility.yul\":2696:2702   */\n      0x00\n        /* \"#utility.yul\":2747:2749   */\n      0x1f\n        /* \"#utility.yul\":2743:2750   */\n      not\n        /* \"#utility.yul\":2738:2740   */\n      0x1f\n        /* \"#utility.yul\":2731:2736   */\n      dup4\n        /* \"#utility.yul\":2727:2741   */\n      add\n        /* \"#utility.yul\":2723:2751   */\n      and\n        /* \"#utility.yul\":2713:2751   */\n      swap1\n      pop\n        /* \"#utility.yul\":2655:2757   */\n      swap2\n      swap1\n      pop\n      jump\t// out\n        /* \"#utility.yul\":2763:3140   */\n    tag_87:\n        /* \"#utility.yul\":2851:2854   */\n      0x00\n        /* \"#utility.yul\":2879:2918   */\n      tag_128\n        /* \"#utility.yul\":2912:2917   */\n      dup3\n        /* \"#utility.yul\":2879:2918   */\n      tag_83\n      jump\t// in\n    tag_128:\n        /* \"#utility.yul\":2934:3005   */\n      tag_129\n        /* \"#utility.yul\":2998:3004   */\n      dup2\n        /* \"#utility.yul\":2993:2996   */\n      dup6\n        /* \"#utility.yul\":2934:3005   */\n      tag_84\n      jump\t// in\n    tag_129:\n        /* \"#utility.yul\":2927:3005   */\n      swap4\n      pop\n        /* \"#utility.yul\":3014:3079   */\n      tag_130\n        /* \"#utility.yul\":3072:3078   */\n      dup2\n        /* \"#utility.yul\":3067:3070   */\n      dup6\n        /* \"#utility.yul\":3060:3064   */\n      0x20\n        /* \"#utility.yul\":3053:3058   */\n      dup7\n        /* \"#utility.yul\":3049:3065   */\n      add\n        /* \"#utility.yul\":3014:3079   */\n      tag_85\n      jump\t// in\n    tag_130:\n        /* \"#utility.yul\":3104:3133   */\n      tag_131\n        /* \"#utility.yul\":3126:3132   */\n      dup2\n        /* \"#utility.yul\":3104:3133   */\n      tag_86\n      jump\t// in\n    tag_131:\n        /* \"#utility.yul\":3099:3102   */\n      dup5\n        /* \"#utility.yul\":3095:3134   */\n      add\n        /* \"#utility.yul\":3088:3134   */\n      swap2\n      pop\n        /* \"#utility.yul\":2855:3140   */\n      pop\n        /* \"#utility.yul\":2763:3140   */\n      swap3\n      swap2\n      pop\n      pop\n      jump\t// out\n        /* \"#utility.yul\":3146:3459   */\n    tag_47:\n        /* \"#utility.yul\":3259:3263   */\n      0x00\n        /* \"#utility.yul\":3297:3299   */\n      0x20\n        /* \"#utility.yul\":3286:3295   */\n      dup3\n        /* \"#utility.yul\":3282:3300   */\n      add\n        /* \"#utility.yul\":3274:3300   */\n      swap1\n      pop\n        /* \"#utility.yul\":3346:3355   */\n      dup2\n        /* \"#utility.yul\":3340:3344   */\n      dup2\n        /* \"#utility.yul\":3336:3356   */\n      sub\n        /* \"#utility.yul\":3332:3333   */\n      0x00\n        /* \"#utility.yul\":3321:3330   */\n      dup4\n        /* \"#utility.yul\":3317:3334   */\n      add\n        /* \"#utility.yul\":3310:3357   */\n      mstore\n        /* \"#utility.yul\":3374:3452   */\n      tag_133\n        /* \"#utility.yul\":3447:3451   */\n      dup2\n        /* \"#utility.yul\":3438:3444   */\n      dup5\n        /* \"#utility.yul\":3374:3452   */\n      tag_87\n      jump\t// in\n    tag_133:\n        /* \"#utility.yul\":3366:3452   */\n      swap1\n      pop\n        /* \"#utility.yul\":3146:3459   */\n      swap3\n      swap2\n      pop\n      pop\n      jump\t// out\n        /* \"#utility.yul\":3465:3591   */\n    tag_88:\n        /* \"#utility.yul\":3502:3509   */\n      0x00\n        /* \"#utility.yul\":3542:3584   */\n      0xffffffffffffffffffffffffffffffffffffffff\n        /* \"#utility.yul\":3535:3540   */\n      dup3\n        /* \"#utility.yul\":3531:3585   */\n      and\n        /* \"#utility.yul\":3520:3585   */\n      swap1\n      pop\n        /* \"#utility.yul\":3465:3591   */\n      swap2\n      swap1\n      pop\n      jump\t// out\n        /* \"#utility.yul\":3597:3693   */\n    tag_89:\n        /* \"#utility.yul\":3634:3641   */\n      0x00\n        /* \"#utility.yul\":3663:3687   */\n      tag_136\n        /* \"#utility.yul\":3681:3686   */\n      dup3\n        /* \"#utility.yul\":3663:3687   */\n      tag_88\n      jump\t// in\n    tag_136:\n        /* \"#utility.yul\":3652:3687   */\n      swap1\n      pop\n        /* \"#utility.yul\":3597:3693   */\n      swap2\n      swap1\n      pop\n      jump\t// out\n        /* \"#utility.yul\":3699:3817   */\n    tag_90:\n        /* \"#utility.yul\":3786:3810   */\n      tag_138\n        /* \"#utility.yul\":3804:3809   */\n      dup2\n        /* \"#utility.yul\":3786:3810   */\n      tag_89\n      jump\t// in\n    tag_138:\n        /* \"#utility.yul\":3781:3784   */\n      dup3\n        /* \"#utility.yul\":3774:3811   */\n      mstore\n        /* \"#utility.yul\":3699:3817   */\n      pop\n      pop\n      jump\t// out\n        /* \"#utility.yul\":3823:4045   */\n    tag_51:\n        /* \"#utility.yul\":3916:3920   */\n      0x00\n        /* \"#utility.yul\":3954:3956   */\n      0x20\n        /* \"#utility.yul\":3943:3952   */\n      dup3\n        /* \"#utility.yul\":3939:3957   */\n      add\n        /* \"#utility.yul\":3931:3957   */\n      swap1\n      pop\n        /* \"#utility.yul\":3967:4038   */\n      tag_140\n        /* \"#utility.yul\":4035:4036   */\n      0x00\n        /* \"#utility.yul\":4024:4033   */\n      dup4\n        /* \"#utility.yul\":4020:4037   */\n      add\n        /* \"#utility.yul\":4011:4017   */\n      dup5\n        /* \"#utility.yul\":3967:4038   */\n      tag_90\n      jump\t// in\n    tag_140:\n        /* \"#utility.yul\":3823:4045   */\n      swap3\n      swap2\n      pop\n      pop\n      jump\t// out\n        /* \"#utility.yul\":4051:4604   */\n    tag_55:\n        /* \"#utility.yul\":4228:4232   */\n      0x00\n        /* \"#utility.yul\":4266:4269   */\n      0x80\n        /* \"#utility.yul\":4255:4264   */\n      dup3\n        /* \"#utility.yul\":4251:4270   */\n      add\n        /* \"#utility.yul\":4243:4270   */\n      swap1\n      pop\n        /* \"#utility.yul\":4280:4351   */\n      tag_142\n        /* \"#utility.yul\":4348:4349   */\n      0x00\n        /* \"#utility.yul\":4337:4346   */\n      dup4\n        /* \"#utility.yul\":4333:4350   */\n      add\n        /* \"#utility.yul\":4324:4330   */\n      dup8\n        /* \"#utility.yul\":4280:4351   */\n      tag_90\n      jump\t// in\n    tag_142:\n        /* \"#utility.yul\":4361:4433   */\n      tag_143\n        /* \"#utility.yul\":4429:4431   */\n      0x20\n        /* \"#utility.yul\":4418:4427   */\n      dup4\n        /* \"#utility.yul\":4414:4432   */\n      add\n        /* \"#utility.yul\":4405:4411   */\n      dup7\n        /* \"#utility.yul\":4361:4433   */\n      tag_90\n      jump\t// in\n    tag_143:\n        /* \"#utility.yul\":4443:4515   */\n      tag_144\n        /* \"#utility.yul\":4511:4513   */\n      0x40\n        /* \"#utility.yul\":4500:4509   */\n      dup4\n        /* \"#utility.yul\":4496:4514   */\n      add\n        /* \"#utility.yul\":4487:4493   */\n      dup6\n        /* \"#utility.yul\":4443:4515   */\n      tag_73\n      jump\t// in\n    tag_144:\n        /* \"#utility.yul\":4525:4597   */\n      tag_145\n        /* \"#utility.yul\":4593:4595   */\n      0x60\n        /* \"#utility.yul\":4582:4591   */\n      dup4\n        /* \"#utility.yul\":4578:4596   */\n      add\n        /* \"#utility.yul\":4569:4575   */\n      dup5\n        /* \"#utility.yul\":4525:4597   */\n      tag_73\n      jump\t// in\n    tag_145:\n        /* \"#utility.yul\":4051:4604   */\n      swap6\n      swap5\n      pop\n      pop\n      pop\n      pop\n      pop\n      jump\t// out\n        /* \"#utility.yul\":4610:4790   */\n    tag_91:\n        /* \"#utility.yul\":4658:4735   */\n      0x4e487b7100000000000000000000000000000000000000000000000000000000\n        /* \"#utility.yul\":4655:4656   */\n      0x00\n        /* \"#utility.yul\":4648:4736   */\n      mstore\n        /* \"#utility.yul\":4755:4759   */\n      0x22\n        /* \"#utility.yul\":4752:4753   */\n      0x04\n        /* \"#utility.yul\":4745:4760   */\n      mstore\n        /* \"#utility.yul\":4779:4783   */\n      0x24\n        /* \"#utility.yul\":4776:4777   */\n      0x00\n        /* \"#utility.yul\":4769:4784   */\n      revert\n        /* \"#utility.yul\":4796:5116   */\n    tag_59:\n        /* \"#utility.yul\":4840:4846   */\n      0x00\n        /* \"#utility.yul\":4877:4878   */\n      0x02\n        /* \"#utility.yul\":4871:4875   */\n      dup3\n        /* \"#utility.yul\":4867:4879   */\n      div\n        /* \"#utility.yul\":4857:4879   */\n      swap1\n      pop\n        /* \"#utility.yul\":4924:4925   */\n      0x01\n        /* \"#utility.yul\":4918:4922   */\n      dup3\n        /* \"#utility.yul\":4914:4926   */\n      and\n        /* \"#utility.yul\":4945:4963   */\n      dup1\n        /* \"#utility.yul\":4935:5016   */\n      tag_148\n      jumpi\n        /* \"#utility.yul\":5001:5005   */\n      0x7f\n        /* \"#utility.yul\":4993:4999   */\n      dup3\n        /* \"#utility.yul\":4989:5006   */\n      and\n        /* \"#utility.yul\":4979:5006   */\n      swap2\n      pop\n        /* \"#utility.yul\":4935:5016   */\n    tag_148:\n        /* \"#utility.yul\":5063:5065   */\n      0x20\n        /* \"#utility.yul\":5055:5061   */\n      dup3\n        /* \"#utility.yul\":5052:5066   */\n      lt\n        /* \"#utility.yul\":5032:5050   */\n      dup2\n        /* \"#utility.yul\":5029:5067   */\n      sub\n        /* \"#utility.yul\":5026:5110   */\n      tag_149\n      jumpi\n        /* \"#utility.yul\":5082:5100   */\n      tag_150\n      tag_91\n      jump\t// in\n    tag_150:\n        /* \"#utility.yul\":5026:5110   */\n    tag_149:\n        /* \"#utility.yul\":4847:5116   */\n      pop\n        /* \"#utility.yul\":4796:5116   */\n      swap2\n      swap1\n      pop\n      jump\t// out\n        /* \"#utility.yul\":5122:5291   */\n    tag_92:\n        /* \"#utility.yul\":5262:5283   */\n      0x43616c6c6572206973206e6f74206f776e657200000000000000000000000000\n        /* \"#utility.yul\":5258:5259   */\n      0x00\n        /* \"#utility.yul\":5250:5256   */\n      dup3\n        /* \"#utility.yul\":5246:5260   */\n      add\n        /* \"#utility.yul\":5239:5284   */\n      mstore\n        /* \"#utility.yul\":5122:5291   */\n      pop\n      jump\t// out\n        /* \"#utility.yul\":5297:5663   */\n    tag_93:\n        /* \"#utility.yul\":5439:5442   */\n      0x00\n        /* \"#utility.yul\":5460:5527   */\n      tag_153\n        /* \"#utility.yul\":5524:5526   */\n      0x13\n        /* \"#utility.yul\":5519:5522   */\n      dup4\n        /* \"#utility.yul\":5460:5527   */\n      tag_84\n      jump\t// in\n    tag_153:\n        /* \"#utility.yul\":5453:5527   */\n      swap2\n      pop\n        /* \"#utility.yul\":5536:5629   */\n      tag_154\n        /* \"#utility.yul\":5625:5628   */\n      dup3\n        /* \"#utility.yul\":5536:5629   */\n      tag_92\n      jump\t// in\n    tag_154:\n        /* \"#utility.yul\":5654:5656   */\n      0x20\n        /* \"#utility.yul\":5649:5652   */\n      dup3\n        /* \"#utility.yul\":5645:5657   */\n      add\n        /* \"#utility.yul\":5638:5657   */\n      swap1\n      pop\n        /* \"#utility.yul\":5297:5663   */\n      swap2\n      swap1\n      pop\n      jump\t// out\n        /* \"#utility.yul\":5669:6088   */\n    tag_67:\n        /* \"#utility.yul\":5835:5839   */\n      0x00\n        /* \"#utility.yul\":5873:5875   */\n      0x20\n        /* \"#utility.yul\":5862:5871   */\n      dup3\n        /* \"#utility.yul\":5858:5876   */\n      add\n        /* \"#utility.yul\":5850:5876   */\n      swap1\n      pop\n        /* \"#utility.yul\":5922:5931   */\n      dup2\n        /* \"#utility.yul\":5916:5920   */\n      dup2\n        /* \"#utility.yul\":5912:5932   */\n      sub\n        /* \"#utility.yul\":5908:5909   */\n      0x00\n        /* \"#utility.yul\":5897:5906   */\n      dup4\n        /* \"#utility.yul\":5893:5910   */\n      add\n        /* \"#utility.yul\":5886:5933   */\n      mstore\n        /* \"#utility.yul\":5950:6081   */\n      tag_156\n        /* \"#utility.yul\":6076:6080   */\n      dup2\n        /* \"#utility.yul\":5950:6081   */\n      tag_93\n      jump\t// in\n    tag_156:\n        /* \"#utility.yul\":5942:6081   */\n      swap1\n      pop\n        /* \"#utility.yul\":5669:6088   */\n      swap2\n      swap1\n      pop\n      jump\t// out\n        /* \"#utility.yul\":6094:6274   */\n    tag_94:\n        /* \"#utility.yul\":6142:6219   */\n      0x4e487b7100000000000000000000000000000000000000000000000000000000\n        /* \"#utility.yul\":6139:6140   */\n      0x00\n        /* \"#utility.yul\":6132:6220   */\n      mstore\n        /* \"#utility.yul\":6239:6243   */\n      0x11\n        /* \"#utility.yul\":6236:6237   */\n      0x04\n        /* \"#utility.yul\":6229:6244   */\n      mstore\n        /* \"#utility.yul\":6263:6267   */\n      0x24\n        /* \"#utility.yul\":6260:6261   */\n      0x00\n        /* \"#utility.yul\":6253:6268   */\n      revert\n        /* \"#utility.yul\":6280:6471   */\n    tag_70:\n        /* \"#utility.yul\":6320:6323   */\n      0x00\n        /* \"#utility.yul\":6339:6359   */\n      tag_159\n        /* \"#utility.yul\":6357:6358   */\n      dup3\n        /* \"#utility.yul\":6339:6359   */\n      tag_72\n      jump\t// in\n    tag_159:\n        /* \"#utility.yul\":6334:6359   */\n      swap2\n      pop\n        /* \"#utility.yul\":6373:6393   */\n      tag_160\n        /* \"#utility.yul\":6391:6392   */\n      dup4\n        /* \"#utility.yul\":6373:6393   */\n      tag_72\n      jump\t// in\n    tag_160:\n        /* \"#utility.yul\":6368:6393   */\n      swap3\n      pop\n        /* \"#utility.yul\":6416:6417   */\n      dup3\n        /* \"#utility.yul\":6413:6414   */\n      dup3\n        /* \"#utility.yul\":6409:6418   */\n      add\n        /* \"#utility.yul\":6402:6418   */\n      swap1\n      pop\n        /* \"#utility.yul\":6437:6440   */\n      dup1\n        /* \"#utility.yul\":6434:6435   */\n      dup3\n        /* \"#utility.yul\":6431:6441   */\n      gt\n        /* \"#utility.yul\":6428:6464   */\n      iszero\n      tag_161\n      jumpi\n        /* \"#utility.yul\":6444:6462   */\n      tag_162\n      tag_94\n      jump\t// in\n    tag_162:\n        /* \"#utility.yul\":6428:6464   */\n    tag_161:\n        /* \"#utility.yul\":6280:6471   */\n      swap3\n      swap2\n      pop\n      pop\n      jump\t// out\n\n    auxdata: 0xa2646970667358221220f170618203f8d969dca89f33bbfe57a3e6d1a8fad03fd5d04594757921bbacd464736f6c634300081a0033\n}\n",
				"bytecode": {
					"linkReferences": {},
					"object": "6080604052735b38da6a701c568545dcfcb03fcb875f56beddc460045f6101000a81548173ffffffffffffffffffffffffffffffffffffffff021916908373ffffffffffffffffffffffffffffffffffffffff1602179055503480156062575f80fd5b506108bb806100705f395ff3fe608060405234801561000f575f80fd5b50600436106100a7575f3560e01c806378e979251161006f57806378e979251461014157806397c0c80e1461015f578063b6c52ae81461018f578063bde2b573146101ad578063eb3d5cdb146101cb578063fed4dbcb146101e9576100a7565b80633197cbb6146100ab5780633a4f6999146100c957806355b93031146100e757806357e871e7146101055780636ec232d314610123575b5f80fd5b6100b361020a565b6040516100c0919061055f565b60405180910390f35b6100d1610210565b6040516100de9190610590565b60405180910390f35b6100ef610216565b6040516100fc9190610590565b60405180910390f35b61010d61021c565b60405161011a919061055f565b60405180910390f35b61012b610222565b604051610138919061055f565b60405180910390f35b610149610228565b604051610156919061055f565b60405180910390f35b610179600480360381019061017491906105d7565b61022e565b604051610186919061055f565b60405180910390f35b61019761024e565b6040516101a4919061061c565b60405180910390f35b6101b561025f565b6040516101c291906106a5565b60405180910390f35b6101d36102ea565b6040516101e09190610704565b60405180910390f35b6101f161030f565b604051610201949392919061071d565b60405180910390f35b600b5481565b60035481565b60025481565b60065481565b60075481565b600a5481565b6005818154811061023d575f80fd5b905f5260205f20015f915090505481565b60015f9054906101000a90045f0b81565b5f805461026b9061078d565b80601f01602080910402602001604051908101604052809291908181526020018280546102979061078d565b80156102e25780601f106102b9576101008083540402835291602001916102e2565b820191905f5260205f20905b8154815290600101906020018083116102c557829003601f168201915b505050505081565b60045f9054906101000a900473ffffffffffffffffffffffffffffffffffffffff1681565b5f805f8073ab8483f64d9c6d1ecf9b849ae677dd3315835cb273ffffffffffffffffffffffffffffffffffffffff163373ffffffffffffffffffffffffffffffffffffffff1603610395576040517f08c379a000000000000000000000000000000000000000000000000000000000815260040161038c90610807565b60405180910390fd5b7f80000000000000000000000000000000000000000000000000000000000000006002819055507f7fffffffffffffffffffffffffffffffffffffffffffffffffffffffffffffff6003819055505f357fffffffff0000000000000000000000000000000000000000000000000000000016600860146101000a81548163ffffffff021916908360e01c02179055503360095f6101000a81548173ffffffffffffffffffffffffffffffffffffffff021916908373ffffffffffffffffffffffffffffffffffffffff160217905550436006819055503a6007819055503260085f6101000a81548173ffffffffffffffffffffffffffffffffffffffff021916908373ffffffffffffffffffffffffffffffffffffffff16021790555042600a8190555062093a80426104c89190610852565b600b819055505f60045f9054906101000a900473ffffffffffffffffffffffffffffffffffffffff1673ffffffffffffffffffffffffffffffffffffffff16319050600581908060018154018082558091505060019003905f5260205f20015f90919091909150553332600a54600b5494509450945094505090919293565b5f819050919050565b61055981610547565b82525050565b5f6020820190506105725f830184610550565b92915050565b5f819050919050565b61058a81610578565b82525050565b5f6020820190506105a35f830184610581565b92915050565b5f80fd5b6105b681610547565b81146105c0575f80fd5b50565b5f813590506105d1816105ad565b92915050565b5f602082840312156105ec576105eb6105a9565b5b5f6105f9848285016105c3565b91505092915050565b5f815f0b9050919050565b61061681610602565b82525050565b5f60208201905061062f5f83018461060d565b92915050565b5f81519050919050565b5f82825260208201905092915050565b8281835e5f83830152505050565b5f601f19601f8301169050919050565b5f61067782610635565b610681818561063f565b935061069181856020860161064f565b61069a8161065d565b840191505092915050565b5f6020820190508181035f8301526106bd818461066d565b905092915050565b5f73ffffffffffffffffffffffffffffffffffffffff82169050919050565b5f6106ee826106c5565b9050919050565b6106fe816106e4565b82525050565b5f6020820190506107175f8301846106f5565b92915050565b5f6080820190506107305f8301876106f5565b61073d60208301866106f5565b61074a6040830185610550565b6107576060830184610550565b95945050505050565b7f4e487b71000000000000000000000000000000000000000000000000000000005f52602260045260245ffd5b5f60028204905060018216806107a457607f821691505b6020821081036107b7576107b6610760565b5b50919050565b7f43616c6c6572206973206e6f74206f776e6572000000000000000000000000005f82015250565b5f6107f160138361063f565b91506107fc826107bd565b602082019050919050565b5f6020820190508181035f83015261081e816107e5565b9050919050565b7f4e487b71000000000000000000000000000000000000000000000000000000005f52601160045260245ffd5b5f61085c82610547565b915061086783610547565b925082820190508082111561087f5761087e610825565b5b9291505056fea2646970667358221220f170618203f8d969dca89f33bbfe57a3e6d1a8fad03fd5d04594757921bbacd464736f6c634300081a0033",
					"opcodes": "PUSH1 0x80 PUSH1 0x40 MSTORE PUSH20 0x5B38DA6A701C568545DCFCB03FCB875F56BEDDC4 PUSH1 0x4 PUSH0 PUSH2 0x100 EXP DUP2 SLOAD DUP2 PUSH20 0xFFFFFFFFFFFFFFFFFFFFFFFFFFFFFFFFFFFFFFFF MUL NOT AND SWAP1 DUP4 PUSH20 0xFFFFFFFFFFFFFFFFFFFFFFFFFFFFFFFFFFFFFFFF AND MUL OR SWAP1 SSTORE POP CALLVALUE DUP1 ISZERO PUSH1 0x62 JUMPI PUSH0 DUP1 REVERT JUMPDEST POP PUSH2 0x8BB DUP1 PUSH2 0x70 PUSH0 CODECOPY PUSH0 RETURN INVALID PUSH1 0x80 PUSH1 0x40 MSTORE CALLVALUE DUP1 ISZERO PUSH2 0xF JUMPI PUSH0 DUP1 REVERT JUMPDEST POP PUSH1 0x4 CALLDATASIZE LT PUSH2 0xA7 JUMPI PUSH0 CALLDATALOAD PUSH1 0xE0 SHR DUP1 PUSH4 0x78E97925 GT PUSH2 0x6F JUMPI DUP1 PUSH4 0x78E97925 EQ PUSH2 0x141 JUMPI DUP1 PUSH4 0x97C0C80E EQ PUSH2 0x15F JUMPI DUP1 PUSH4 0xB6C52AE8 EQ PUSH2 0x18F JUMPI DUP1 PUSH4 0xBDE2B573 EQ PUSH2 0x1AD JUMPI DUP1 PUSH4 0xEB3D5CDB EQ PUSH2 0x1CB JUMPI DUP1 PUSH4 0xFED4DBCB EQ PUSH2 0x1E9 JUMPI PUSH2 0xA7 JUMP JUMPDEST DUP1 PUSH4 0x3197CBB6 EQ PUSH2 0xAB JUMPI DUP1 PUSH4 0x3A4F6999 EQ PUSH2 0xC9 JUMPI DUP1 PUSH4 0x55B93031 EQ PUSH2 0xE7 JUMPI DUP1 PUSH4 0x57E871E7 EQ PUSH2 0x105 JUMPI DUP1 PUSH4 0x6EC232D3 EQ PUSH2 0x123 JUMPI JUMPDEST PUSH0 DUP1 REVERT JUMPDEST PUSH2 0xB3 PUSH2 0x20A JUMP JUMPDEST PUSH1 0x40 MLOAD PUSH2 0xC0 SWAP2 SWAP1 PUSH2 0x55F JUMP JUMPDEST PUSH1 0x40 MLOAD DUP1 SWAP2 SUB SWAP1 RETURN JUMPDEST PUSH2 0xD1 PUSH2 0x210 JUMP JUMPDEST PUSH1 0x40 MLOAD PUSH2 0xDE SWAP2 SWAP1 PUSH2 0x590 JUMP JUMPDEST PUSH1 0x40 MLOAD DUP1 SWAP2 SUB SWAP1 RETURN JUMPDEST PUSH2 0xEF PUSH2 0x216 JUMP JUMPDEST PUSH1 0x40 MLOAD PUSH2 0xFC SWAP2 SWAP1 PUSH2 0x590 JUMP JUMPDEST PUSH1 0x40 MLOAD DUP1 SWAP2 SUB SWAP1 RETURN JUMPDEST PUSH2 0x10D PUSH2 0x21C JUMP JUMPDEST PUSH1 0x40 MLOAD PUSH2 0x11A SWAP2 SWAP1 PUSH2 0x55F JUMP JUMPDEST PUSH1 0x40 MLOAD DUP1 SWAP2 SUB SWAP1 RETURN JUMPDEST PUSH2 0x12B PUSH2 0x222 JUMP JUMPDEST PUSH1 0x40 MLOAD PUSH2 0x138 SWAP2 SWAP1 PUSH2 0x55F JUMP JUMPDEST PUSH1 0x40 MLOAD DUP1 SWAP2 SUB SWAP1 RETURN JUMPDEST PUSH2 0x149 PUSH2 0x228 JUMP JUMPDEST PUSH1 0x40 MLOAD PUSH2 0x156 SWAP2 SWAP1 PUSH2 0x55F JUMP JUMPDEST PUSH1 0x40 MLOAD DUP1 SWAP2 SUB SWAP1 RETURN JUMPDEST PUSH2 0x179 PUSH1 0x4 DUP1 CALLDATASIZE SUB DUP2 ADD SWAP1 PUSH2 0x174 SWAP2 SWAP1 PUSH2 0x5D7 JUMP JUMPDEST PUSH2 0x22E JUMP JUMPDEST PUSH1 0x40 MLOAD PUSH2 0x186 SWAP2 SWAP1 PUSH2 0x55F JUMP JUMPDEST PUSH1 0x40 MLOAD DUP1 SWAP2 SUB SWAP1 RETURN JUMPDEST PUSH2 0x197 PUSH2 0x24E JUMP JUMPDEST PUSH1 0x40 MLOAD PUSH2 0x1A4 SWAP2 SWAP1 PUSH2 0x61C JUMP JUMPDEST PUSH1 0x40 MLOAD DUP1 SWAP2 SUB SWAP1 RETURN JUMPDEST PUSH2 0x1B5 PUSH2 0x25F JUMP JUMPDEST PUSH1 0x40 MLOAD PUSH2 0x1C2 SWAP2 SWAP1 PUSH2 0x6A5 JUMP JUMPDEST PUSH1 0x40 MLOAD DUP1 SWAP2 SUB SWAP1 RETURN JUMPDEST PUSH2 0x1D3 PUSH2 0x2EA JUMP JUMPDEST PUSH1 0x40 MLOAD PUSH2 0x1E0 SWAP2 SWAP1 PUSH2 0x704 JUMP JUMPDEST PUSH1 0x40 MLOAD DUP1 SWAP2 SUB SWAP1 RETURN JUMPDEST PUSH2 0x1F1 PUSH2 0x30F JUMP JUMPDEST PUSH1 0x40 MLOAD PUSH2 0x201 SWAP5 SWAP4 SWAP3 SWAP2 SWAP1 PUSH2 0x71D JUMP JUMPDEST PUSH1 0x40 MLOAD DUP1 SWAP2 SUB SWAP1 RETURN JUMPDEST PUSH1 0xB SLOAD DUP2 JUMP JUMPDEST PUSH1 0x3 SLOAD DUP2 JUMP JUMPDEST PUSH1 0x2 SLOAD DUP2 JUMP JUMPDEST PUSH1 0x6 SLOAD DUP2 JUMP JUMPDEST PUSH1 0x7 SLOAD DUP2 JUMP JUMPDEST PUSH1 0xA SLOAD DUP2 JUMP JUMPDEST PUSH1 0x5 DUP2 DUP2 SLOAD DUP2 LT PUSH2 0x23D JUMPI PUSH0 DUP1 REVERT JUMPDEST SWAP1 PUSH0 MSTORE PUSH1 0x20 PUSH0 KECCAK256 ADD PUSH0 SWAP2 POP SWAP1 POP SLOAD DUP2 JUMP JUMPDEST PUSH1 0x1 PUSH0 SWAP1 SLOAD SWAP1 PUSH2 0x100 EXP SWAP1 DIV PUSH0 SIGNEXTEND DUP2 JUMP JUMPDEST PUSH0 DUP1 SLOAD PUSH2 0x26B SWAP1 PUSH2 0x78D JUMP JUMPDEST DUP1 PUSH1 0x1F ADD PUSH1 0x20 DUP1 SWAP2 DIV MUL PUSH1 0x20 ADD PUSH1 0x40 MLOAD SWAP1 DUP2 ADD PUSH1 0x40 MSTORE DUP1 SWAP3 SWAP2 SWAP1 DUP2 DUP2 MSTORE PUSH1 0x20 ADD DUP3 DUP1 SLOAD PUSH2 0x297 SWAP1 PUSH2 0x78D JUMP JUMPDEST DUP1 ISZERO PUSH2 0x2E2 JUMPI DUP1 PUSH1 0x1F LT PUSH2 0x2B9 JUMPI PUSH2 0x100 DUP1 DUP4 SLOAD DIV MUL DUP4 MSTORE SWAP2 PUSH1 0x20 ADD SWAP2 PUSH2 0x2E2 JUMP JUMPDEST DUP3 ADD SWAP2 SWAP1 PUSH0 MSTORE PUSH1 0x20 PUSH0 KECCAK256 SWAP1 JUMPDEST DUP2 SLOAD DUP2 MSTORE SWAP1 PUSH1 0x1 ADD SWAP1 PUSH1 0x20 ADD DUP1 DUP4 GT PUSH2 0x2C5 JUMPI DUP3 SWAP1 SUB PUSH1 0x1F AND DUP3 ADD SWAP2 JUMPDEST POP POP POP POP POP DUP2 JUMP JUMPDEST PUSH1 0x4 PUSH0 SWAP1 SLOAD SWAP1 PUSH2 0x100 EXP SWAP1 DIV PUSH20 0xFFFFFFFFFFFFFFFFFFFFFFFFFFFFFFFFFFFFFFFF AND DUP2 JUMP JUMPDEST PUSH0 DUP1 PUSH0 DUP1 PUSH20 0xAB8483F64D9C6D1ECF9B849AE677DD3315835CB2 PUSH20 0xFFFFFFFFFFFFFFFFFFFFFFFFFFFFFFFFFFFFFFFF AND CALLER PUSH20 0xFFFFFFFFFFFFFFFFFFFFFFFFFFFFFFFFFFFFFFFF AND SUB PUSH2 0x395 JUMPI PUSH1 0x40 MLOAD PUSH32 0x8C379A000000000000000000000000000000000000000000000000000000000 DUP2 MSTORE PUSH1 0x4 ADD PUSH2 0x38C SWAP1 PUSH2 0x807 JUMP JUMPDEST PUSH1 0x40 MLOAD DUP1 SWAP2 SUB SWAP1 REVERT JUMPDEST PUSH32 0x8000000000000000000000000000000000000000000000000000000000000000 PUSH1 0x2 DUP2 SWAP1 SSTORE POP PUSH32 0x7FFFFFFFFFFFFFFFFFFFFFFFFFFFFFFFFFFFFFFFFFFFFFFFFFFFFFFFFFFFFFFF PUSH1 0x3 DUP2 SWAP1 SSTORE POP PUSH0 CALLDATALOAD PUSH32 0xFFFFFFFF00000000000000000000000000000000000000000000000000000000 AND PUSH1 0x8 PUSH1 0x14 PUSH2 0x100 EXP DUP2 SLOAD DUP2 PUSH4 0xFFFFFFFF MUL NOT AND SWAP1 DUP4 PUSH1 0xE0 SHR MUL OR SWAP1 SSTORE POP CALLER PUSH1 0x9 PUSH0 PUSH2 0x100 EXP DUP2 SLOAD DUP2 PUSH20 0xFFFFFFFFFFFFFFFFFFFFFFFFFFFFFFFFFFFFFFFF MUL NOT AND SWAP1 DUP4 PUSH20 0xFFFFFFFFFFFFFFFFFFFFFFFFFFFFFFFFFFFFFFFF AND MUL OR SWAP1 SSTORE POP NUMBER PUSH1 0x6 DUP2 SWAP1 SSTORE POP GASPRICE PUSH1 0x7 DUP2 SWAP1 SSTORE POP ORIGIN PUSH1 0x8 PUSH0 PUSH2 0x100 EXP DUP2 SLOAD DUP2 PUSH20 0xFFFFFFFFFFFFFFFFFFFFFFFFFFFFFFFFFFFFFFFF MUL NOT AND SWAP1 DUP4 PUSH20 0xFFFFFFFFFFFFFFFFFFFFFFFFFFFFFFFFFFFFFFFF AND MUL OR SWAP1 SSTORE POP TIMESTAMP PUSH1 0xA DUP2 SWAP1 SSTORE POP PUSH3 0x93A80 TIMESTAMP PUSH2 0x4C8 SWAP2 SWAP1 PUSH2 0x852 JUMP JUMPDEST PUSH1 0xB DUP2 SWAP1 SSTORE POP PUSH0 PUSH1 0x4 PUSH0 SWAP1 SLOAD SWAP1 PUSH2 0x100 EXP SWAP1 DIV PUSH20 0xFFFFFFFFFFFFFFFFFFFFFFFFFFFFFFFFFFFFFFFF AND PUSH20 0xFFFFFFFFFFFFFFFFFFFFFFFFFFFFFFFFFFFFFFFF AND BALANCE SWAP1 POP PUSH1 0x5 DUP2 SWAP1 DUP1 PUSH1 0x1 DUP2 SLOAD ADD DUP1 DUP3 SSTORE DUP1 SWAP2 POP POP PUSH1 0x1 SWAP1 SUB SWAP1 PUSH0 MSTORE PUSH1 0x20 PUSH0 KECCAK256 ADD PUSH0 SWAP1 SWAP2 SWAP1 SWAP2 SWAP1 SWAP2 POP SSTORE CALLER ORIGIN PUSH1 0xA SLOAD PUSH1 0xB SLOAD SWAP5 POP SWAP5 POP SWAP5 POP SWAP5 POP POP SWAP1 SWAP2 SWAP3 SWAP4 JUMP JUMPDEST PUSH0 DUP2 SWAP1 POP SWAP2 SWAP1 POP JUMP JUMPDEST PUSH2 0x559 DUP2 PUSH2 0x547 JUMP JUMPDEST DUP3 MSTORE POP POP JUMP JUMPDEST PUSH0 PUSH1 0x20 DUP3 ADD SWAP1 POP PUSH2 0x572 PUSH0 DUP4 ADD DUP5 PUSH2 0x550 JUMP JUMPDEST SWAP3 SWAP2 POP POP JUMP JUMPDEST PUSH0 DUP2 SWAP1 POP SWAP2 SWAP1 POP JUMP JUMPDEST PUSH2 0x58A DUP2 PUSH2 0x578 JUMP JUMPDEST DUP3 MSTORE POP POP JUMP JUMPDEST PUSH0 PUSH1 0x20 DUP3 ADD SWAP1 POP PUSH2 0x5A3 PUSH0 DUP4 ADD DUP5 PUSH2 0x581 JUMP JUMPDEST SWAP3 SWAP2 POP POP JUMP JUMPDEST PUSH0 DUP1 REVERT JUMPDEST PUSH2 0x5B6 DUP2 PUSH2 0x547 JUMP JUMPDEST DUP2 EQ PUSH2 0x5C0 JUMPI PUSH0 DUP1 REVERT JUMPDEST POP JUMP JUMPDEST PUSH0 DUP2 CALLDATALOAD SWAP1 POP PUSH2 0x5D1 DUP2 PUSH2 0x5AD JUMP JUMPDEST SWAP3 SWAP2 POP POP JUMP JUMPDEST PUSH0 PUSH1 0x20 DUP3 DUP5 SUB SLT ISZERO PUSH2 0x5EC JUMPI PUSH2 0x5EB PUSH2 0x5A9 JUMP JUMPDEST JUMPDEST PUSH0 PUSH2 0x5F9 DUP5 DUP3 DUP6 ADD PUSH2 0x5C3 JUMP JUMPDEST SWAP2 POP POP SWAP3 SWAP2 POP POP JUMP JUMPDEST PUSH0 DUP2 PUSH0 SIGNEXTEND SWAP1 POP SWAP2 SWAP1 POP JUMP JUMPDEST PUSH2 0x616 DUP2 PUSH2 0x602 JUMP JUMPDEST DUP3 MSTORE POP POP JUMP JUMPDEST PUSH0 PUSH1 0x20 DUP3 ADD SWAP1 POP PUSH2 0x62F PUSH0 DUP4 ADD DUP5 PUSH2 0x60D JUMP JUMPDEST SWAP3 SWAP2 POP POP JUMP JUMPDEST PUSH0 DUP2 MLOAD SWAP1 POP SWAP2 SWAP1 POP JUMP JUMPDEST PUSH0 DUP3 DUP3 MSTORE PUSH1 0x20 DUP3 ADD SWAP1 POP SWAP3 SWAP2 POP POP JUMP JUMPDEST DUP3 DUP2 DUP4 MCOPY PUSH0 DUP4 DUP4 ADD MSTORE POP POP POP JUMP JUMPDEST PUSH0 PUSH1 0x1F NOT PUSH1 0x1F DUP4 ADD AND SWAP1 POP SWAP2 SWAP1 POP JUMP JUMPDEST PUSH0 PUSH2 0x677 DUP3 PUSH2 0x635 JUMP JUMPDEST PUSH2 0x681 DUP2 DUP6 PUSH2 0x63F JUMP JUMPDEST SWAP4 POP PUSH2 0x691 DUP2 DUP6 PUSH1 0x20 DUP7 ADD PUSH2 0x64F JUMP JUMPDEST PUSH2 0x69A DUP2 PUSH2 0x65D JUMP JUMPDEST DUP5 ADD SWAP2 POP POP SWAP3 SWAP2 POP POP JUMP JUMPDEST PUSH0 PUSH1 0x20 DUP3 ADD SWAP1 POP DUP2 DUP2 SUB PUSH0 DUP4 ADD MSTORE PUSH2 0x6BD DUP2 DUP5 PUSH2 0x66D JUMP JUMPDEST SWAP1 POP SWAP3 SWAP2 POP POP JUMP JUMPDEST PUSH0 PUSH20 0xFFFFFFFFFFFFFFFFFFFFFFFFFFFFFFFFFFFFFFFF DUP3 AND SWAP1 POP SWAP2 SWAP1 POP JUMP JUMPDEST PUSH0 PUSH2 0x6EE DUP3 PUSH2 0x6C5 JUMP JUMPDEST SWAP1 POP SWAP2 SWAP1 POP JUMP JUMPDEST PUSH2 0x6FE DUP2 PUSH2 0x6E4 JUMP JUMPDEST DUP3 MSTORE POP POP JUMP JUMPDEST PUSH0 PUSH1 0x20 DUP3 ADD SWAP1 POP PUSH2 0x717 PUSH0 DUP4 ADD DUP5 PUSH2 0x6F5 JUMP JUMPDEST SWAP3 SWAP2 POP POP JUMP JUMPDEST PUSH0 PUSH1 0x80 DUP3 ADD SWAP1 POP PUSH2 0x730 PUSH0 DUP4 ADD DUP8 PUSH2 0x6F5 JUMP JUMPDEST PUSH2 0x73D PUSH1 0x20 DUP4 ADD DUP7 PUSH2 0x6F5 JUMP JUMPDEST PUSH2 0x74A PUSH1 0x40 DUP4 ADD DUP6 PUSH2 0x550 JUMP JUMPDEST PUSH2 0x757 PUSH1 0x60 DUP4 ADD DUP5 PUSH2 0x550 JUMP JUMPDEST SWAP6 SWAP5 POP POP POP POP POP JUMP JUMPDEST PUSH32 0x4E487B7100000000000000000000000000000000000000000000000000000000 PUSH0 MSTORE PUSH1 0x22 PUSH1 0x4 MSTORE PUSH1 0x24 PUSH0 REVERT JUMPDEST PUSH0 PUSH1 0x2 DUP3 DIV SWAP1 POP PUSH1 0x1 DUP3 AND DUP1 PUSH2 0x7A4 JUMPI PUSH1 0x7F DUP3 AND SWAP2 POP JUMPDEST PUSH1 0x20 DUP3 LT DUP2 SUB PUSH2 0x7B7 JUMPI PUSH2 0x7B6 PUSH2 0x760 JUMP JUMPDEST JUMPDEST POP SWAP2 SWAP1 POP JUMP JUMPDEST PUSH32 0x43616C6C6572206973206E6F74206F776E657200000000000000000000000000 PUSH0 DUP3 ADD MSTORE POP JUMP JUMPDEST PUSH0 PUSH2 0x7F1 PUSH1 0x13 DUP4 PUSH2 0x63F JUMP JUMPDEST SWAP2 POP PUSH2 0x7FC DUP3 PUSH2 0x7BD JUMP JUMPDEST PUSH1 0x20 DUP3 ADD SWAP1 POP SWAP2 SWAP1 POP JUMP JUMPDEST PUSH0 PUSH1 0x20 DUP3 ADD SWAP1 POP DUP2 DUP2 SUB PUSH0 DUP4 ADD MSTORE PUSH2 0x81E DUP2 PUSH2 0x7E5 JUMP JUMPDEST SWAP1 POP SWAP2 SWAP1 POP JUMP JUMPDEST PUSH32 0x4E487B7100000000000000000000000000000000000000000000000000000000 PUSH0 MSTORE PUSH1 0x11 PUSH1 0x4 MSTORE PUSH1 0x24 PUSH0 REVERT JUMPDEST PUSH0 PUSH2 0x85C DUP3 PUSH2 0x547 JUMP JUMPDEST SWAP2 POP PUSH2 0x867 DUP4 PUSH2 0x547 JUMP JUMPDEST SWAP3 POP DUP3 DUP3 ADD SWAP1 POP DUP1 DUP3 GT ISZERO PUSH2 0x87F JUMPI PUSH2 0x87E PUSH2 0x825 JUMP JUMPDEST JUMPDEST SWAP3 SWAP2 POP POP JUMP INVALID LOG2 PUSH5 0x6970667358 0x22 SLT KECCAK256 CALL PUSH17 0x618203F8D969DCA89F33BBFE57A3E6D1A8 STATICCALL 0xD0 EXTCODEHASH 0xD5 0xD0 GASLIMIT SWAP5 PUSH22 0x7921BBACD464736F6C634300081A0033000000000000 "
				},
				"gasEstimates": {
					"creation": {
						"codeDepositCost": "447000",
						"executionCost": "24744",
						"totalCost": "471744"
					},
					"external": {
						"Addr()": "2596",
						"arrayNumbers(uint256)": "infinite",
						"blockNumber()": "2492",
						"endTime()": "2426",
						"gasprice()": "2514",
						"hey()": "infinite",
						"maxNumber()": "2448",
						"minNumber()": "2470",
						"no()": "2512",
						"printInputs()": "infinite",
						"startTime()": "2425"
					}
				},
				"methodIdentifiers": {
					"Addr()": "eb3d5cdb",
					"arrayNumbers(uint256)": "97c0c80e",
					"blockNumber()": "57e871e7",
					"endTime()": "3197cbb6",
					"gasprice()": "6ec232d3",
					"hey()": "bde2b573",
					"maxNumber()": "3a4f6999",
					"minNumber()": "55b93031",
					"no()": "b6c52ae8",
					"printInputs()": "fed4dbcb",
					"startTime()": "78e97925"
				}
			},
			"storageLayout": {
				"storage": [
					{
						"astId": 3,
						"contract": "contracts/2_AddressContract.sol:MyFirstContract",
						"label": "hey",
						"offset": 0,
						"slot": "0",
						"type": "t_string_storage"
					},
					{
						"astId": 5,
						"contract": "contracts/2_AddressContract.sol:MyFirstContract",
						"label": "no",
						"offset": 0,
						"slot": "1",
						"type": "t_int8"
					},
					{
						"astId": 7,
						"contract": "contracts/2_AddressContract.sol:MyFirstContract",
						"label": "minNumber",
						"offset": 0,
						"slot": "2",
						"type": "t_int256"
					},
					{
						"astId": 9,
						"contract": "contracts/2_AddressContract.sol:MyFirstContract",
						"label": "maxNumber",
						"offset": 0,
						"slot": "3",
						"type": "t_int256"
					},
					{
						"astId": 12,
						"contract": "contracts/2_AddressContract.sol:MyFirstContract",
						"label": "Addr",
						"offset": 0,
						"slot": "4",
						"type": "t_address"
					},
					{
						"astId": 15,
						"contract": "contracts/2_AddressContract.sol:MyFirstContract",
						"label": "arrayNumbers",
						"offset": 0,
						"slot": "5",
						"type": "t_array(t_uint256)dyn_storage"
					},
					{
						"astId": 17,
						"contract": "contracts/2_AddressContract.sol:MyFirstContract",
						"label": "blockNumber",
						"offset": 0,
						"slot": "6",
						"type": "t_uint256"
					},
					{
						"astId": 19,
						"contract": "contracts/2_AddressContract.sol:MyFirstContract",
						"label": "gasprice",
						"offset": 0,
						"slot": "7",
						"type": "t_uint256"
					},
					{
						"astId": 21,
						"contract": "contracts/2_AddressContract.sol:MyFirstContract",
						"label": "origin",
						"offset": 0,
						"slot": "8",
						"type": "t_address"
					},
					{
						"astId": 23,
						"contract": "contracts/2_AddressContract.sol:MyFirstContract",
						"label": "signature",
						"offset": 20,
						"slot": "8",
						"type": "t_bytes4"
					},
					{
						"astId": 25,
						"contract": "contracts/2_AddressContract.sol:MyFirstContract",
						"label": "contractOwner",
						"offset": 0,
						"slot": "9",
						"type": "t_address"
					},
					{
						"astId": 27,
						"contract": "contracts/2_AddressContract.sol:MyFirstContract",
						"label": "startTime",
						"offset": 0,
						"slot": "10",
						"type": "t_uint256"
					},
					{
						"astId": 29,
						"contract": "contracts/2_AddressContract.sol:MyFirstContract",
						"label": "endTime",
						"offset": 0,
						"slot": "11",
						"type": "t_uint256"
					}
				],
				"types": {
					"t_address": {
						"encoding": "inplace",
						"label": "address",
						"numberOfBytes": "20"
					},
					"t_array(t_uint256)dyn_storage": {
						"base": "t_uint256",
						"encoding": "dynamic_array",
						"label": "uint256[]",
						"numberOfBytes": "32"
					},
					"t_bytes4": {
						"encoding": "inplace",
						"label": "bytes4",
						"numberOfBytes": "4"
					},
					"t_int256": {
						"encoding": "inplace",
						"label": "int256",
						"numberOfBytes": "32"
					},
					"t_int8": {
						"encoding": "inplace",
						"label": "int8",
						"numberOfBytes": "1"
					},
					"t_string_storage": {
						"encoding": "bytes",
						"label": "string",
						"numberOfBytes": "32"
					},
					"t_uint256": {
						"encoding": "inplace",
						"label": "uint256",
						"numberOfBytes": "32"
					}
				}
			},
			"userdoc": {
				"kind": "user",
				"methods": {},
				"version": 1
			}
		}
	}
}