{
	"data": {
		"bytecode": {
			"linkReferences": {},
			"object": "6080604052348015600e575f80fd5b506108d78061001c5f395ff3fe608060405234801561000f575f80fd5b5060043610610034575f3560e01c80637a7f01a714610038578063fed4dbcb14610061575b5f80fd5b61004061007f565b6040516100589c9b9a99989796959493929190610627565b60405180910390f35b610069610135565b604051610076919061080f565b60405180910390f35b5f805f015490806001015490806002015490806003015490806004015f9054906101000a900473ffffffffffffffffffffffffffffffffffffffff1690806005015490806006015490806007015490806008015490806009015f9054906101000a900473ffffffffffffffffffffffffffffffffffffffff16908060090160149054906101000a900460e01b9080600a015f9054906101000a900473ffffffffffffffffffffffffffffffffffffffff1690508c565b61013d6104c5565b73ab8483f64d9c6d1ecf9b849ae677dd3315835cb273ffffffffffffffffffffffffffffffffffffffff163373ffffffffffffffffffffffffffffffffffffffff16036101bf576040517f08c379a00000000000000000000000000000000000000000000000000000000081526004016101b690610883565b60405180910390fd5b435f800181905550485f6001018190555043405f60020181905550465f60030181905550415f6004015f6101000a81548173ffffffffffffffffffffffffffffffffffffffff021916908373ffffffffffffffffffffffffffffffffffffffff160217905550445f60050181905550455f60060181905550425f600701819055503a5f60080181905550325f6009015f6101000a81548173ffffffffffffffffffffffffffffffffffffffff021916908373ffffffffffffffffffffffffffffffffffffffff1602179055505f357fffffffff00000000000000000000000000000000000000000000000000000000165f60090160146101000a81548163ffffffff021916908360e01c0217905550335f600a015f6101000a81548173ffffffffffffffffffffffffffffffffffffffff021916908373ffffffffffffffffffffffffffffffffffffffff1602179055505f604051806101800160405290815f8201548152602001600182015481526020016002820154815260200160038201548152602001600482015f9054906101000a900473ffffffffffffffffffffffffffffffffffffffff1673ffffffffffffffffffffffffffffffffffffffff1673ffffffffffffffffffffffffffffffffffffffff16815260200160058201548152602001600682015481526020016007820154815260200160088201548152602001600982015f9054906101000a900473ffffffffffffffffffffffffffffffffffffffff1673ffffffffffffffffffffffffffffffffffffffff1673ffffffffffffffffffffffffffffffffffffffff1681526020016009820160149054906101000a900460e01b7bffffffffffffffffffffffffffffffffffffffffffffffffffffffff19167bffffffffffffffffffffffffffffffffffffffffffffffffffffffff19168152602001600a82015f9054906101000a900473ffffffffffffffffffffffffffffffffffffffff1673ffffffffffffffffffffffffffffffffffffffff1673ffffffffffffffffffffffffffffffffffffffff1681525050905090565b6040518061018001604052805f81526020015f81526020015f80191681526020015f81526020015f73ffffffffffffffffffffffffffffffffffffffff1681526020015f81526020015f81526020015f81526020015f81526020015f73ffffffffffffffffffffffffffffffffffffffff1681526020015f7bffffffffffffffffffffffffffffffffffffffffffffffffffffffff191681526020015f73ffffffffffffffffffffffffffffffffffffffff1681525090565b5f819050919050565b6105908161057e565b82525050565b5f819050919050565b6105a881610596565b82525050565b5f73ffffffffffffffffffffffffffffffffffffffff82169050919050565b5f6105d7826105ae565b9050919050565b6105e7816105cd565b82525050565b5f7fffffffff0000000000000000000000000000000000000000000000000000000082169050919050565b610621816105ed565b82525050565b5f6101808201905061063b5f83018f610587565b610648602083018e610587565b610655604083018d61059f565b610662606083018c610587565b61066f608083018b6105de565b61067c60a083018a610587565b61068960c0830189610587565b61069660e0830188610587565b6106a4610100830187610587565b6106b26101208301866105de565b6106c0610140830185610618565b6106ce6101608301846105de565b9d9c50505050505050505050505050565b6106e88161057e565b82525050565b6106f781610596565b82525050565b610706816105cd565b82525050565b610715816105ed565b82525050565b61018082015f8201516107305f8501826106df565b50602082015161074360208501826106df565b50604082015161075660408501826106ee565b50606082015161076960608501826106df565b50608082015161077c60808501826106fd565b5060a082015161078f60a08501826106df565b5060c08201516107a260c08501826106df565b5060e08201516107b560e08501826106df565b506101008201516107ca6101008501826106df565b506101208201516107df6101208501826106fd565b506101408201516107f461014085018261070c565b506101608201516108096101608501826106fd565b50505050565b5f610180820190506108235f83018461071b565b92915050565b5f82825260208201905092915050565b7f43616c6c6572206973206e6f74206f776e6572000000000000000000000000005f82015250565b5f61086d601383610829565b915061087882610839565b602082019050919050565b5f6020820190508181035f83015261089a81610861565b905091905056fea26469706673582212203adac31b56f418c3f37cc2f3606d886c40ff00255429af5db7be7f0067c8ebb864736f6c634300081a0033",
			"opcodes": "PUSH1 0x80 PUSH1 0x40 MSTORE CALLVALUE DUP1 ISZERO PUSH1 0xE JUMPI PUSH0 DUP1 REVERT JUMPDEST POP PUSH2 0x8D7 DUP1 PUSH2 0x1C PUSH0 CODECOPY PUSH0 RETURN INVALID PUSH1 0x80 PUSH1 0x40 MSTORE CALLVALUE DUP1 ISZERO PUSH2 0xF JUMPI PUSH0 DUP1 REVERT JUMPDEST POP PUSH1 0x4 CALLDATASIZE LT PUSH2 0x34 JUMPI PUSH0 CALLDATALOAD PUSH1 0xE0 SHR DUP1 PUSH4 0x7A7F01A7 EQ PUSH2 0x38 JUMPI DUP1 PUSH4 0xFED4DBCB EQ PUSH2 0x61 JUMPI JUMPDEST PUSH0 DUP1 REVERT JUMPDEST PUSH2 0x40 PUSH2 0x7F JUMP JUMPDEST PUSH1 0x40 MLOAD PUSH2 0x58 SWAP13 SWAP12 SWAP11 SWAP10 SWAP9 SWAP8 SWAP7 SWAP6 SWAP5 SWAP4 SWAP3 SWAP2 SWAP1 PUSH2 0x627 JUMP JUMPDEST PUSH1 0x40 MLOAD DUP1 SWAP2 SUB SWAP1 RETURN JUMPDEST PUSH2 0x69 PUSH2 0x135 JUMP JUMPDEST PUSH1 0x40 MLOAD PUSH2 0x76 SWAP2 SWAP1 PUSH2 0x80F JUMP JUMPDEST PUSH1 0x40 MLOAD DUP1 SWAP2 SUB SWAP1 RETURN JUMPDEST PUSH0 DUP1 PUSH0 ADD SLOAD SWAP1 DUP1 PUSH1 0x1 ADD SLOAD SWAP1 DUP1 PUSH1 0x2 ADD SLOAD SWAP1 DUP1 PUSH1 0x3 ADD SLOAD SWAP1 DUP1 PUSH1 0x4 ADD PUSH0 SWAP1 SLOAD SWAP1 PUSH2 0x100 EXP SWAP1 DIV PUSH20 0xFFFFFFFFFFFFFFFFFFFFFFFFFFFFFFFFFFFFFFFF AND SWAP1 DUP1 PUSH1 0x5 ADD SLOAD SWAP1 DUP1 PUSH1 0x6 ADD SLOAD SWAP1 DUP1 PUSH1 0x7 ADD SLOAD SWAP1 DUP1 PUSH1 0x8 ADD SLOAD SWAP1 DUP1 PUSH1 0x9 ADD PUSH0 SWAP1 SLOAD SWAP1 PUSH2 0x100 EXP SWAP1 DIV PUSH20 0xFFFFFFFFFFFFFFFFFFFFFFFFFFFFFFFFFFFFFFFF AND SWAP1 DUP1 PUSH1 0x9 ADD PUSH1 0x14 SWAP1 SLOAD SWAP1 PUSH2 0x100 EXP SWAP1 DIV PUSH1 0xE0 SHL SWAP1 DUP1 PUSH1 0xA ADD PUSH0 SWAP1 SLOAD SWAP1 PUSH2 0x100 EXP SWAP1 DIV PUSH20 0xFFFFFFFFFFFFFFFFFFFFFFFFFFFFFFFFFFFFFFFF AND SWAP1 POP DUP13 JUMP JUMPDEST PUSH2 0x13D PUSH2 0x4C5 JUMP JUMPDEST PUSH20 0xAB8483F64D9C6D1ECF9B849AE677DD3315835CB2 PUSH20 0xFFFFFFFFFFFFFFFFFFFFFFFFFFFFFFFFFFFFFFFF AND CALLER PUSH20 0xFFFFFFFFFFFFFFFFFFFFFFFFFFFFFFFFFFFFFFFF AND SUB PUSH2 0x1BF JUMPI PUSH1 0x40 MLOAD PUSH32 0x8C379A000000000000000000000000000000000000000000000000000000000 DUP2 MSTORE PUSH1 0x4 ADD PUSH2 0x1B6 SWAP1 PUSH2 0x883 JUMP JUMPDEST PUSH1 0x40 MLOAD DUP1 SWAP2 SUB SWAP1 REVERT JUMPDEST NUMBER PUSH0 DUP1 ADD DUP2 SWAP1 SSTORE POP BASEFEE PUSH0 PUSH1 0x1 ADD DUP2 SWAP1 SSTORE POP NUMBER BLOCKHASH PUSH0 PUSH1 0x2 ADD DUP2 SWAP1 SSTORE POP CHAINID PUSH0 PUSH1 0x3 ADD DUP2 SWAP1 SSTORE POP COINBASE PUSH0 PUSH1 0x4 ADD PUSH0 PUSH2 0x100 EXP DUP2 SLOAD DUP2 PUSH20 0xFFFFFFFFFFFFFFFFFFFFFFFFFFFFFFFFFFFFFFFF MUL NOT AND SWAP1 DUP4 PUSH20 0xFFFFFFFFFFFFFFFFFFFFFFFFFFFFFFFFFFFFFFFF AND MUL OR SWAP1 SSTORE POP PREVRANDAO PUSH0 PUSH1 0x5 ADD DUP2 SWAP1 SSTORE POP GASLIMIT PUSH0 PUSH1 0x6 ADD DUP2 SWAP1 SSTORE POP TIMESTAMP PUSH0 PUSH1 0x7 ADD DUP2 SWAP1 SSTORE POP GASPRICE PUSH0 PUSH1 0x8 ADD DUP2 SWAP1 SSTORE POP ORIGIN PUSH0 PUSH1 0x9 ADD PUSH0 PUSH2 0x100 EXP DUP2 SLOAD DUP2 PUSH20 0xFFFFFFFFFFFFFFFFFFFFFFFFFFFFFFFFFFFFFFFF MUL NOT AND SWAP1 DUP4 PUSH20 0xFFFFFFFFFFFFFFFFFFFFFFFFFFFFFFFFFFFFFFFF AND MUL OR SWAP1 SSTORE POP PUSH0 CALLDATALOAD PUSH32 0xFFFFFFFF00000000000000000000000000000000000000000000000000000000 AND PUSH0 PUSH1 0x9 ADD PUSH1 0x14 PUSH2 0x100 EXP DUP2 SLOAD DUP2 PUSH4 0xFFFFFFFF MUL NOT AND SWAP1 DUP4 PUSH1 0xE0 SHR MUL OR SWAP1 SSTORE POP CALLER PUSH0 PUSH1 0xA ADD PUSH0 PUSH2 0x100 EXP DUP2 SLOAD DUP2 PUSH20 0xFFFFFFFFFFFFFFFFFFFFFFFFFFFFFFFFFFFFFFFF MUL NOT AND SWAP1 DUP4 PUSH20 0xFFFFFFFFFFFFFFFFFFFFFFFFFFFFFFFFFFFFFFFF AND MUL OR SWAP1 SSTORE POP PUSH0 PUSH1 0x40 MLOAD DUP1 PUSH2 0x180 ADD PUSH1 0x40 MSTORE SWAP1 DUP2 PUSH0 DUP3 ADD SLOAD DUP2 MSTORE PUSH1 0x20 ADD PUSH1 0x1 DUP3 ADD SLOAD DUP2 MSTORE PUSH1 0x20 ADD PUSH1 0x2 DUP3 ADD SLOAD DUP2 MSTORE PUSH1 0x20 ADD PUSH1 0x3 DUP3 ADD SLOAD DUP2 MSTORE PUSH1 0x20 ADD PUSH1 0x4 DUP3 ADD PUSH0 SWAP1 SLOAD SWAP1 PUSH2 0x100 EXP SWAP1 DIV PUSH20 0xFFFFFFFFFFFFFFFFFFFFFFFFFFFFFFFFFFFFFFFF AND PUSH20 0xFFFFFFFFFFFFFFFFFFFFFFFFFFFFFFFFFFFFFFFF AND PUSH20 0xFFFFFFFFFFFFFFFFFFFFFFFFFFFFFFFFFFFFFFFF AND DUP2 MSTORE PUSH1 0x20 ADD PUSH1 0x5 DUP3 ADD SLOAD DUP2 MSTORE PUSH1 0x20 ADD PUSH1 0x6 DUP3 ADD SLOAD DUP2 MSTORE PUSH1 0x20 ADD PUSH1 0x7 DUP3 ADD SLOAD DUP2 MSTORE PUSH1 0x20 ADD PUSH1 0x8 DUP3 ADD SLOAD DUP2 MSTORE PUSH1 0x20 ADD PUSH1 0x9 DUP3 ADD PUSH0 SWAP1 SLOAD SWAP1 PUSH2 0x100 EXP SWAP1 DIV PUSH20 0xFFFFFFFFFFFFFFFFFFFFFFFFFFFFFFFFFFFFFFFF AND PUSH20 0xFFFFFFFFFFFFFFFFFFFFFFFFFFFFFFFFFFFFFFFF AND PUSH20 0xFFFFFFFFFFFFFFFFFFFFFFFFFFFFFFFFFFFFFFFF AND DUP2 MSTORE PUSH1 0x20 ADD PUSH1 0x9 DUP3 ADD PUSH1 0x14 SWAP1 SLOAD SWAP1 PUSH2 0x100 EXP SWAP1 DIV PUSH1 0xE0 SHL PUSH28 0xFFFFFFFFFFFFFFFFFFFFFFFFFFFFFFFFFFFFFFFFFFFFFFFFFFFFFFFF NOT AND PUSH28 0xFFFFFFFFFFFFFFFFFFFFFFFFFFFFFFFFFFFFFFFFFFFFFFFFFFFFFFFF NOT AND DUP2 MSTORE PUSH1 0x20 ADD PUSH1 0xA DUP3 ADD PUSH0 SWAP1 SLOAD SWAP1 PUSH2 0x100 EXP SWAP1 DIV PUSH20 0xFFFFFFFFFFFFFFFFFFFFFFFFFFFFFFFFFFFFFFFF AND PUSH20 0xFFFFFFFFFFFFFFFFFFFFFFFFFFFFFFFFFFFFFFFF AND PUSH20 0xFFFFFFFFFFFFFFFFFFFFFFFFFFFFFFFFFFFFFFFF AND DUP2 MSTORE POP POP SWAP1 POP SWAP1 JUMP JUMPDEST PUSH1 0x40 MLOAD DUP1 PUSH2 0x180 ADD PUSH1 0x40 MSTORE DUP1 PUSH0 DUP2 MSTORE PUSH1 0x20 ADD PUSH0 DUP2 MSTORE PUSH1 0x20 ADD PUSH0 DUP1 NOT AND DUP2 MSTORE PUSH1 0x20 ADD PUSH0 DUP2 MSTORE PUSH1 0x20 ADD PUSH0 PUSH20 0xFFFFFFFFFFFFFFFFFFFFFFFFFFFFFFFFFFFFFFFF AND DUP2 MSTORE PUSH1 0x20 ADD PUSH0 DUP2 MSTORE PUSH1 0x20 ADD PUSH0 DUP2 MSTORE PUSH1 0x20 ADD PUSH0 DUP2 MSTORE PUSH1 0x20 ADD PUSH0 DUP2 MSTORE PUSH1 0x20 ADD PUSH0 PUSH20 0xFFFFFFFFFFFFFFFFFFFFFFFFFFFFFFFFFFFFFFFF AND DUP2 MSTORE PUSH1 0x20 ADD PUSH0 PUSH28 0xFFFFFFFFFFFFFFFFFFFFFFFFFFFFFFFFFFFFFFFFFFFFFFFFFFFFFFFF NOT AND DUP2 MSTORE PUSH1 0x20 ADD PUSH0 PUSH20 0xFFFFFFFFFFFFFFFFFFFFFFFFFFFFFFFFFFFFFFFF AND DUP2 MSTORE POP SWAP1 JUMP JUMPDEST PUSH0 DUP2 SWAP1 POP SWAP2 SWAP1 POP JUMP JUMPDEST PUSH2 0x590 DUP2 PUSH2 0x57E JUMP JUMPDEST DUP3 MSTORE POP POP JUMP JUMPDEST PUSH0 DUP2 SWAP1 POP SWAP2 SWAP1 POP JUMP JUMPDEST PUSH2 0x5A8 DUP2 PUSH2 0x596 JUMP JUMPDEST DUP3 MSTORE POP POP JUMP JUMPDEST PUSH0 PUSH20 0xFFFFFFFFFFFFFFFFFFFFFFFFFFFFFFFFFFFFFFFF DUP3 AND SWAP1 POP SWAP2 SWAP1 POP JUMP JUMPDEST PUSH0 PUSH2 0x5D7 DUP3 PUSH2 0x5AE JUMP JUMPDEST SWAP1 POP SWAP2 SWAP1 POP JUMP JUMPDEST PUSH2 0x5E7 DUP2 PUSH2 0x5CD JUMP JUMPDEST DUP3 MSTORE POP POP JUMP JUMPDEST PUSH0 PUSH32 0xFFFFFFFF00000000000000000000000000000000000000000000000000000000 DUP3 AND SWAP1 POP SWAP2 SWAP1 POP JUMP JUMPDEST PUSH2 0x621 DUP2 PUSH2 0x5ED JUMP JUMPDEST DUP3 MSTORE POP POP JUMP JUMPDEST PUSH0 PUSH2 0x180 DUP3 ADD SWAP1 POP PUSH2 0x63B PUSH0 DUP4 ADD DUP16 PUSH2 0x587 JUMP JUMPDEST PUSH2 0x648 PUSH1 0x20 DUP4 ADD DUP15 PUSH2 0x587 JUMP JUMPDEST PUSH2 0x655 PUSH1 0x40 DUP4 ADD DUP14 PUSH2 0x59F JUMP JUMPDEST PUSH2 0x662 PUSH1 0x60 DUP4 ADD DUP13 PUSH2 0x587 JUMP JUMPDEST PUSH2 0x66F PUSH1 0x80 DUP4 ADD DUP12 PUSH2 0x5DE JUMP JUMPDEST PUSH2 0x67C PUSH1 0xA0 DUP4 ADD DUP11 PUSH2 0x587 JUMP JUMPDEST PUSH2 0x689 PUSH1 0xC0 DUP4 ADD DUP10 PUSH2 0x587 JUMP JUMPDEST PUSH2 0x696 PUSH1 0xE0 DUP4 ADD DUP9 PUSH2 0x587 JUMP JUMPDEST PUSH2 0x6A4 PUSH2 0x100 DUP4 ADD DUP8 PUSH2 0x587 JUMP JUMPDEST PUSH2 0x6B2 PUSH2 0x120 DUP4 ADD DUP7 PUSH2 0x5DE JUMP JUMPDEST PUSH2 0x6C0 PUSH2 0x140 DUP4 ADD DUP6 PUSH2 0x618 JUMP JUMPDEST PUSH2 0x6CE PUSH2 0x160 DUP4 ADD DUP5 PUSH2 0x5DE JUMP JUMPDEST SWAP14 SWAP13 POP POP POP POP POP POP POP POP POP POP POP POP POP JUMP JUMPDEST PUSH2 0x6E8 DUP2 PUSH2 0x57E JUMP JUMPDEST DUP3 MSTORE POP POP JUMP JUMPDEST PUSH2 0x6F7 DUP2 PUSH2 0x596 JUMP JUMPDEST DUP3 MSTORE POP POP JUMP JUMPDEST PUSH2 0x706 DUP2 PUSH2 0x5CD JUMP JUMPDEST DUP3 MSTORE POP POP JUMP JUMPDEST PUSH2 0x715 DUP2 PUSH2 0x5ED JUMP JUMPDEST DUP3 MSTORE POP POP JUMP JUMPDEST PUSH2 0x180 DUP3 ADD PUSH0 DUP3 ADD MLOAD PUSH2 0x730 PUSH0 DUP6 ADD DUP3 PUSH2 0x6DF JUMP JUMPDEST POP PUSH1 0x20 DUP3 ADD MLOAD PUSH2 0x743 PUSH1 0x20 DUP6 ADD DUP3 PUSH2 0x6DF JUMP JUMPDEST POP PUSH1 0x40 DUP3 ADD MLOAD PUSH2 0x756 PUSH1 0x40 DUP6 ADD DUP3 PUSH2 0x6EE JUMP JUMPDEST POP PUSH1 0x60 DUP3 ADD MLOAD PUSH2 0x769 PUSH1 0x60 DUP6 ADD DUP3 PUSH2 0x6DF JUMP JUMPDEST POP PUSH1 0x80 DUP3 ADD MLOAD PUSH2 0x77C PUSH1 0x80 DUP6 ADD DUP3 PUSH2 0x6FD JUMP JUMPDEST POP PUSH1 0xA0 DUP3 ADD MLOAD PUSH2 0x78F PUSH1 0xA0 DUP6 ADD DUP3 PUSH2 0x6DF JUMP JUMPDEST POP PUSH1 0xC0 DUP3 ADD MLOAD PUSH2 0x7A2 PUSH1 0xC0 DUP6 ADD DUP3 PUSH2 0x6DF JUMP JUMPDEST POP PUSH1 0xE0 DUP3 ADD MLOAD PUSH2 0x7B5 PUSH1 0xE0 DUP6 ADD DUP3 PUSH2 0x6DF JUMP JUMPDEST POP PUSH2 0x100 DUP3 ADD MLOAD PUSH2 0x7CA PUSH2 0x100 DUP6 ADD DUP3 PUSH2 0x6DF JUMP JUMPDEST POP PUSH2 0x120 DUP3 ADD MLOAD PUSH2 0x7DF PUSH2 0x120 DUP6 ADD DUP3 PUSH2 0x6FD JUMP JUMPDEST POP PUSH2 0x140 DUP3 ADD MLOAD PUSH2 0x7F4 PUSH2 0x140 DUP6 ADD DUP3 PUSH2 0x70C JUMP JUMPDEST POP PUSH2 0x160 DUP3 ADD MLOAD PUSH2 0x809 PUSH2 0x160 DUP6 ADD DUP3 PUSH2 0x6FD JUMP JUMPDEST POP POP POP POP JUMP JUMPDEST PUSH0 PUSH2 0x180 DUP3 ADD SWAP1 POP PUSH2 0x823 PUSH0 DUP4 ADD DUP5 PUSH2 0x71B JUMP JUMPDEST SWAP3 SWAP2 POP POP JUMP JUMPDEST PUSH0 DUP3 DUP3 MSTORE PUSH1 0x20 DUP3 ADD SWAP1 POP SWAP3 SWAP2 POP POP JUMP JUMPDEST PUSH32 0x43616C6C6572206973206E6F74206F776E657200000000000000000000000000 PUSH0 DUP3 ADD MSTORE POP JUMP JUMPDEST PUSH0 PUSH2 0x86D PUSH1 0x13 DUP4 PUSH2 0x829 JUMP JUMPDEST SWAP2 POP PUSH2 0x878 DUP3 PUSH2 0x839 JUMP JUMPDEST PUSH1 0x20 DUP3 ADD SWAP1 POP SWAP2 SWAP1 POP JUMP JUMPDEST PUSH0 PUSH1 0x20 DUP3 ADD SWAP1 POP DUP2 DUP2 SUB PUSH0 DUP4 ADD MSTORE PUSH2 0x89A DUP2 PUSH2 0x861 JUMP JUMPDEST SWAP1 POP SWAP2 SWAP1 POP JUMP INVALID LOG2 PUSH5 0x6970667358 0x22 SLT KECCAK256 GASPRICE 0xDA 0xC3 SHL JUMP DELEGATECALL XOR 0xC3 RETURN PUSH29 0xC2F3606D886C40FF00255429AF5DB7BE7F0067C8EBB864736F6C634300 ADDMOD BYTE STOP CALLER "
		},
		"gasEstimates": {
			"creation": {
				"codeDepositCost": "452600",
				"executionCost": "484",
				"totalCost": "453084"
			},
			"external": {
				"printInputs()": "infinite",
				"response()": "infinite"
			}
		},
		"methodIdentifiers": {
			"printInputs()": "fed4dbcb",
			"response()": "7a7f01a7"
		}
	},
	"abi": [
		{
			"inputs": [],
			"name": "printInputs",
			"outputs": [
				{
					"components": [
						{
							"internalType": "uint256",
							"name": "blockNumber",
							"type": "uint256"
						},
						{
							"internalType": "uint256",
							"name": "blockBasefee",
							"type": "uint256"
						},
						{
							"internalType": "bytes32",
							"name": "blockHash",
							"type": "bytes32"
						},
						{
							"internalType": "uint256",
							"name": "blockChainId",
							"type": "uint256"
						},
						{
							"internalType": "address",
							"name": "blockCoinbase",
							"type": "address"
						},
						{
							"internalType": "uint256",
							"name": "blockDifficulty",
							"type": "uint256"
						},
						{
							"internalType": "uint256",
							"name": "blockGaslimit",
							"type": "uint256"
						},
						{
							"internalType": "uint256",
							"name": "blockTimestamp",
							"type": "uint256"
						},
						{
							"internalType": "uint256",
							"name": "originGasPrice",
							"type": "uint256"
						},
						{
							"internalType": "address",
							"name": "origin",
							"type": "address"
						},
						{
							"internalType": "bytes4",
							"name": "signature",
							"type": "bytes4"
						},
						{
							"internalType": "address",
							"name": "sender",
							"type": "address"
						}
					],
					"internalType": "struct AddressCo.ResponseModel",
					"name": "",
					"type": "tuple"
				}
			],
			"stateMutability": "nonpayable",
			"type": "function"
		},
		{
			"inputs": [],
			"name": "response",
			"outputs": [
				{
					"internalType": "uint256",
					"name": "blockNumber",
					"type": "uint256"
				},
				{
					"internalType": "uint256",
					"name": "blockBasefee",
					"type": "uint256"
				},
				{
					"internalType": "bytes32",
					"name": "blockHash",
					"type": "bytes32"
				},
				{
					"internalType": "uint256",
					"name": "blockChainId",
					"type": "uint256"
				},
				{
					"internalType": "address",
					"name": "blockCoinbase",
					"type": "address"
				},
				{
					"internalType": "uint256",
					"name": "blockDifficulty",
					"type": "uint256"
				},
				{
					"internalType": "uint256",
					"name": "blockGaslimit",
					"type": "uint256"
				},
				{
					"internalType": "uint256",
					"name": "blockTimestamp",
					"type": "uint256"
				},
				{
					"internalType": "uint256",
					"name": "originGasPrice",
					"type": "uint256"
				},
				{
					"internalType": "address",
					"name": "origin",
					"type": "address"
				},
				{
					"internalType": "bytes4",
					"name": "signature",
					"type": "bytes4"
				},
				{
					"internalType": "address",
					"name": "sender",
					"type": "address"
				}
			],
			"stateMutability": "view",
			"type": "function"
		}
	]
}